:020000040000FA
:10000000E0160220E51F020015E90500D11F0200DD
:10001000D11F0200D11F0200D11F0200D11F020018
:100020000000000000000000000000005921020054
:10003000D11F020000000000ED200200D11F0200CD
:10004000DD220200DD220200DD220200DD220200AC
:10005000DD220200DD220200DD220200DD2202009C
:10006000DD220200DD220200DD220200DD2202008C
:10007000DD220200DD220200DD220200DD2202007C
:10008000DD220200DD220200DD220200DD2202006C
:10009000DD220200DD220200DD220200DD2202005C
:1000A000DD220200DD220200DD220200DD2202004C
:1000B000DD220200DD220200DD220200DD2202003C
:1000C000DD220200DD220200DD220200DD2202002C
:1000D000DD220200DD220200DD220200DD2202001C
:1000E000DD220200DD220200DD220200DD2202000C
:1000F000DD220200DD220200DD220200DD220200FC
:10010000DD220200DD220200DD220200DD220200EB
:10011000DD220200DD220200DD220200DD220200DB
:10012000DD220200DD220200DD220200DD220200CB
:10013000DD220200DD220200DD220200DD220200BB
:10014000DD220200DD220200DD220200DD220200AB
:04015000DD220200AA
:100158002DE9F14F03F11C0402EB840C4FEA930BD9
:100168008A68CB680868496800F046F93CE9F000FD
:100178006040694072407B400BF1060E4EE083EA16
:10018800134480EA134582EA134746BA96EA344490
:10019800604000F00F1684EA063420F00F1684EA57
:1001A800161054BA94EA0106724002F00F1486EA57
:1001B800043622F00F1486EA14124CBA65406940DE
:1001C80001F00F1485EA043521F00F1485EA1411A3
:1001D8005CBA67407B4003F00F1487EA043723F0CA
:1001E8000F1487EA141344BA44404DBA4D4056BA26
:1001F80056405FBA5F4087EA174886EA174B84EA99
:1002080017464FEA38488BEA1B4485EA1B4788EAB9
:100218001B4580EA3440694072407B4000F07034EE
:1002280000F0803500F00F3040EA440040EAD50085
:1002380080EA900404F0332480EA8400604001F0EE
:10024800703401F0803501F00F3141EA440141EA90
:10025800D50181EA910404F0332481EA84016140E4
:1002680002F0703402F0803502F00F3242EA4402A4
:1002780042EAD50282EA920404F0332482EA840234
:10028800624003F0703403F0803503F00F3343EA23
:10029800440343EAD50383EA930404F0332483EA4E
:1002A80084036340C943DB4381EA000483EA0446CC
:1002B80086EA020183EA014382EA334583EA14436A
:1002C8005C4084EA00077FEA040A8AEA024A8AEA6A
:1002D800010B87EA11488AEA374A80EA060181EA6F
:1002E8001A418AEA030A04EA0A00454088EA040730
:1002F80007EA0B0041408AEA0B0608EA060084EA8E
:1003080034428AEA3A4602EA0603584045404140E8
:1003180087EA37438BEA3B4003EA000985EA090587
:1003280082EA0309464006EA0906714085EA0100A7
:1003380005EA3546464006EA314181EA304181EA1C
:10034800364606EA304686EA354634400F4086EAA5
:10035800010508EA050886EA3640024088EA0208EC
:1003680081EA314213405C4080EA020309EA03094A
:1003780087EA0907674088EA040806EA0A0601EAE4
:100388000B018AEA0B0425408AEA3A44204045409A
:100398008BEA3B4B02EA0B02564084EA0B042340EB
:1003A80059406E40694087EA364080EA384080EA22
:1003B800060380EA104481EA134585EA344585EA54
:1003C80017427D4082EA354180EA05403CE9F00069
:1003D8006040694072407B40BEF1010E3FF6CFAEEF
:1003E80020BC00F05FF828606960AA60EB60BDE897
:1003F800F08F00BF00F000BA80EA101404F0F01487
:1004080080EA0410604081EA111404F0F01481EAD3
:100418000411614082EA121404F0F01482EA041212
:10042800624083EA131404F0F01483EA041363406F
:1004380080EA102404F47F4480EA0420604081EAC2
:10044800112404F47F4481EA0421614082EA1224E1
:1004580004F47F4482EA0422624083EA132404F409
:100468007F4483EA0423634081EA500404F055344E
:1004780080EA4400614083EA520404F0553482EA79
:100488004402634082EA900404F0333480EA840032
:10049800624083EA910404F0333481EA84016340C2
:1004A800704700BF82EA900404F0333480EA840085
:1004B800624083EA910404F0333481EA84016340A2
:1004C80081EA500404F0553480EA4400614083EA2C
:1004D800520404F0553482EA4402634080EA10244E
:1004E80004F47F4480EA0420604081EA112404F483
:1004F8007F4481EA0421614082EA122404F47F44A3
:1005080082EA0422624083EA132404F47F4483EAE3
:100518000423634080EA101404F0F01480EA041005
:10052800604081EA111404F0F01481EA041161407A
:1005380082EA121404F0F01482EA0412624083EA98
:10054800131404F0F01483EA04136340704700BFE7
:100558002DE9F14F94464FEA930B8A68CB680868F7
:100568004968FFF749FF0BF1060E33E083EA1344AD
:1005780080EA134582EA134746BA96EA3444604053
:1005880000F00F1684EA063420F00F1684EA1610DD
:1005980054BA94EA0106724002F00F1486EA04364F
:1005A80022F00F1486EA14124CBA6540694001F033
:1005B8000F1485EA043521F00F1485EA14115CBA8A
:1005C80067407B4003F00F1487EA043723F00F14C9
:1005D80087EA1413BCE8F0006040694072407B4031
:1005E80000F0E03400F0103500F00F3040EA54001D
:1005F80040EAC50080EA900404F0332480EA8400CD
:10060800604001F0E03401F0103501F00F3141EAAB
:10061800540141EAC50181EA910404F0332481EAD6
:100628008401614002F0E03402F0103502F00F322C
:1006380042EA540242EAC50282EA920404F03324F0
:1006480082EA8402624003F0E03403F0103503F0DC
:100658000F3343EA540343EAC50383EA930404F0DF
:10066800332483EA8403634081EA324787EA1345E7
:1006780081EA354690EA060484EA034B82EA1B4283
:1006880080EA044484EA054483EA144A85EA144467
:100698008BEA044B84EA374481EA0B4181EA16412C
:1006A80004EA0A00454082EA04082BEA08004140AF
:1006B8008AEA0B0602EA060084EA34438AEA3A46E2
:1006C80003EA060778404540414088EA38478BEA04
:1006D8003B4007EA000985EA090583EA070946401D
:1006E80006EA0906714085EA010005EA35464640F2
:1006F80006EA314181EA304181EA364606EA304667
:1007080086EA3546344008EA010886EA01052A40A7
:1007180086EA364003405A4081EA31431F407C4014
:1007280080EA030709EA070988EA0908544088EAC1
:10073800020806EA0A0601EA0B018AEA0B021540DA
:100748008AEA3A42104045408BEA3B4003405E400B
:100758004240174079404D404E40E443F64386EA14
:1007680018435D4085EA054083EA134386EA03415E
:1007780083EA384284EA114383EA04435FEA334355
:10078800BEF1010E3FF6F2AE1ED4BCE8F0006040A8
:10079800694072407B4020BCFFF784FE2860696096
:1007A800AA60EB60BDE8F08F2DE9E0414FF2F0025E
:1007B80080EA1031114080EA01304840410882083F
:1007C800C3084FF0000E4FE700F0113001F011316F
:1007D80002F0113203F0113340EA410040EA82008E
:1007E80040EAC3004FF2F00280EA1031114080EA7B
:1007F80001304840BDE8E0812DE9F04F02F11C05C9
:100808000646074600EB850851F8040B043A46F8FB
:10081800040BF9D14FF0010CFFF7C6FF5FEA302057
:1008280080EA0C001ECF41404A4053405C401EC63F
:100838002000464517D04FEA4C0C1CF4807F18BFA7
:10084800ACF1E50C2C2DE7D03C2D06D1FFF7ACFF21
:1008580006CF41404A4006C6100006CF41404A40F4
:1008680006C61000D8E736E90F00FFF7C5FD043DBE
:1008780086E80F00F7D1BDE8F08F00BF2DE9F0073B
:1008880091E8F807B2E802105B1854EB0C04B2E8E0
:1008980002104D4156EB0C06B2E802104F4158EBDE
:1008A8000C08B2E8021059EB01095AEB0C0A80E86F
:1008B800F80780410130BDE8F00770472DE9F007DF
:1008C80091E8F807B2E802105B1A74EB0C04B2E87E
:1008D80002108D4176EB0C06B2E802108F4178EBDE
:1008E8000C08B2E8021079EB01097AEB0C0A80E8EF
:1008F800F80780414042BDE8F00770472DE9F0074E
:10090800524290E87800B1E880071740DB1918EAEE
:10091800020854EB080419EA020955EB09051AEA1A
:10092800020A56EB0A0678C090E87800B1E880071A
:1009380017407B4118EA020854EB080419EA020937
:1009480055EB09051AEA020A56EB0A0678C08041F7
:100958000130BDE8F00770472DE9F007524290E8F2
:100968007800B1E880071740DB1B18EA020874EB2F
:10097800080419EA020975EB09051AEA020A76EB76
:100988000A0678C090E87800B1E880071740BB41B4
:1009980018EA020874EB080419EA020975EB09055C
:1009A8001AEA020A76EB0A0678C080414042BDE89E
:1009B800F00770472DE9F00152424FF0040890E823
:1009C800300091E8C000A31B1340E41AF618EB1B93
:1009D8001340ED1AFF1830C0C0C1B8F10108EED1BC
:1009E800BDE8F001704700BF00B592E8DC072DE9CB
:1009F800DC07B1E8805702B4A7FB02510A95A8FBAF
:100A0800020BE7FB6310E9FB62B00B91A8FB0351F3
:100A1800EAFB6201E7FB64B5E7FB6605E8FB6615E0
:100A2800CDF830B0A9FB03B6EAFB6316ECFB6356BE
:100A3800E8FB640BE9FB641BEAFB645BECFB646B9F
:100A48000D90ACFB0230059CEEFB6250E9FB646044
:100A5800EAFB64B0E7FB6431E8FB6451069CE8FB01
:100A68006461E9FB64B1EAFB64010E93A7FB0432FD
:100A7800079CE7FB6462E8FB64B2E9FB6402EAFBFB
:100A88006412049CE9FB6453EAFB6463089CE7FB7B
:100A980064B3E8FB6403E9FB6413EAFB64230F9582
:100AA8005DF8049B99E80006DDF80080A9FB08546E
:100AB800EAFB68B4DDF81080ECFB6804EEFB681410
:100AC800E9FB6824EAFB6834DDF80480EEFB68651E
:100AD800E9FB68B5EAFB6805DDF81480ECFB6815EE
:100AE800EEFB6825E9FB6835EAFB68450F96DDF8FB
:100AF8000880AEFB0876E9FB6806EAFB6816DDF8B5
:100B08001880ECFB6826EEFB6836E9FB6846EAFBD2
:100B18006856DDF80C80ECFB68B7EEFB6807E9FB6C
:100B28006817EAFB6827DDF81C80ECFB6837EEFBEA
:100B38006847E9FB6857EAFB686708B000BD00BF73
:100B48002DE9F14F87B0FFF74FFFDDF81C8008F162
:100B5800200888E8FF00FFBC87E87F08BDE8F08F21
:100B680000B591E89857A3FB03520195A3FB040134
:100B7800E3FB6420E3FB67100292A3FB0752E3FB4D
:100B88006802E4FB6415E3FB6805E3FB6925039150
:100B9800A4FB07B6E3FB6926E3FB6A56E4FB670B95
:100BA800E4FB682BE3FB6A5BE3FB6C6B0490A4FB40
:100BB8000810E4FB6950E3FB6C60E3FB6EB0E7FBF5
:100BC8006721E4FB6951E4FB6A61E3FB6EB1E4FB76
:100BD8006E010592A7FB0832E4FB6A62E4FB6CB283
:100BE800E4FB6E02E7FB6E12E7FB6853E7FB696301
:100BF800E4FB6CB3E7FB6C03E7FB6E13E8FB6E23C7
:100C08000695A7FB0954E7FB6AB4E7FB6C04E8FB0D
:100C18006C14E8FB6E24E9FB6E34E8FB6865E7FBBF
:100C28006AB5E8FB6A05E8FB6C15E9FB6C25E9FB8E
:100C38006E35EAFB6E450796A8FB0976E8FB6A065F
:100C4800E9FB6A16E9FB6C26EAFB6C36EAFB6E46A2
:100C5800ECFB6E56E8FB69B7E9FB6907E9FB6A1725
:100C6800EAFB6A27EAFB6C37ECFB6C47ECFB6E5738
:100C7800EEFB6E6700BD00BF2DE9F14F87B0FFF7AF
:100C88006FFFDDF81C8008F1200888E8FF00FFBC32
:100C980087E87F08BDE8F08F2DE9F04FB0E8FE0740
:100CA80083B02DE9010790E8005F4FF00A00069035
:100CB8000198DB199CEA030C18EB3C4897EA0807F3
:100CC80013EB375393EA3C4C18EB3C6898EA3757D8
:100CD80024189EEA040E19EB3E4990EA090014EB29
:100CE800305494EA3E4E19EB3E6999EA3050CDE90A
:100CF8000489DDE9028949199AEA010A18EB3A4898
:100D080095EA080511EB355191EA3A4A18EB3A6829
:100D180098EA355592199BEA020B19EB3B4996EA7A
:100D2800090612EB365292EA3B4B19EB3B6999EAFA
:100D3800365613EB706393EA3B6B18EB3B4898EA23
:100D4800706013EB305393EA3B4B5FEA3B6B18EB55
:100D58000B0898EA30505FEA706014EB756494EA07
:100D68003C6C19EB3C4999EA756514EB355494EAE7
:100D78003C4C5FEA3C6C19EB0C0999EA35555FEA83
:100D88007565CDE90289DDE9048911EB766191EA9F
:100D98003E6E18EB3E4898EA766611EB365191EABA
:100DA8003E4E5FEA3E6E18EB0E0898EA36565FEA4A
:100DB800766612EB776292EA3A6A19EB3A4999EA4F
:100DC800776712EB375292EA3A4A5FEA3A6A19EBC6
:100DD8000A0999EA37575FEA776701900698013858
:100DE8007FF465AF01BC80E8005FBDE8000700E95B
:100DF800FE0703B0BDE8F08F30B44FF0000310F8E1
:100E0800014B11F8015B013A84EA050443EA040343
:100E1800F5D1A3F101034FEAD37030BC704700BF8E
:100E28004FF0000310F8012B013943EA0203F9D10E
:100E3800A3F101034FEAD370704700BF30B411F833
:100E4800014B12F8015B6C4000F8014B013BF6D1F5
:100E580030BC70472DE9F00791E8F807B2E80210B6
:100E68005B1854EB0C04B2E802104D4156EB0C062B
:100E7800B2E802104F4158EB0C08B2E8021059EBE7
:100E880001095AEB0C0A8941B3F1FF3374F1FF34BD
:100E980075F1FF3576F1000677F1000778F1000863
:100EA80079F101097AF1FF3A51F100015B184C41DF
:100EB8004D4156F1000657F1000758F1000859EB6B
:100EC800D1795AEB010A80E8F807BDE8F0077047C6
:100ED8002DE9F00791E8F807B2E802105B1A74EB05
:100EE8000C04B2E802108D4176EB0C06B2E8021051
:100EF8008F4178EB0C08B2E8021079EB01097AEB24
:100F08000C0A89415B184C414D4156F1000657F1D6
:100F1800000758F1000859EBD1795AEB010A80E82B
:100F2800F807BDE8F007704718EB040859EB050906
:100F38005AEB060A5BEB070B5FF0000C4CF1000C58
:100F480018EB050859EB06095AEB070A5BEB070B88
:100F580050EB0C005FF0000C51EB0C0152EB0C0253
:100F680063414CF1000CB8EB070879F100097AF1FC
:100F7800000A7BEB040BA841B141A241B3416CF1DB
:100F8800000CBBEB050BB041B941AA41BB416CF168
:100F9800000C4CF001068CF0020718EB060859EB20
:100FA8006C095AEB6C0A7BEB6C0B70EB6C0471EB05
:100FB8006C0572EB670653EB6C076CEB6C0C18EB6B
:100FC8000C0059EB0C015AEB0C025BF1000354F1D5
:100FD800000455F1000556EBDC7657EB0C0770471B
:100FE8002DE9F14F87B0FFF7FFFCDDF81080DDF841
:100FF8001490DDF818A0FFF797FFBDE8000FFFF782
:1010080093FF03B05DF8048B88E8FF00BDE8F08F1C
:101018002DE9F14F87B0FFF7A3FDDDF81080DDF86B
:101028001490DDF818A0FFF77FFFBDE8000FFFF769
:101038007BFF03B05DF8048B88E8FF00BDE8F08F04
:101048002DE9F14FF8C892E8005E19EB03095AEB55
:10105800040A5BEB050B5CEB060C4EEB070E91E804
:10106800E001A9FB0502AAFB0543E9FB6624EAFBAC
:101078006634A9FB0765E9FB6845B1E80003EBFBAB
:101088006836ECFB6846EEFB6856ABFB0987ECFB61
:101098006957EEFB696791E80202EAFB6148EBFBDE
:1010A8006158ECFB6168EEFB61784FF00001EAFBE8
:1010B8000951EBFB6961ECFB6971EEFB69814FF447
:1010C800A03C4FEA154949EA06495FF0000AE9FBE6
:1010D8000C0A4FEA164646EA0746E6FB6C2A4FEA30
:1010E800174747EA0847E7FB6C3A4FEA184848EAC7
:1010F8000148E8FB6C4AADB25544AF0805F003055A
:1011080007EB8707C01952F1000153F1000254F1AF
:10111800000345F1000420BC1FC5BDE8F08F00BFE7
:1011280030B490E83C10511D53F1000154F1000116
:1011380055F100014CF100014FEA9101494201F0DB
:101148000501521853F1000354F1000455F100054C
:101158004CF1000C0CF0030C80E83C1030BC7047DC
:101168002DE9F04F90E8F00F00F140004FF0040E29
:1011780059E0F0B4826BC36B0468052524268759AF
:101188003C444FEA724787EAF24787EA92273C4491
:1011980042684FEAF21787EAB24787EAD2073C4427
:1011A80040F8044B032D08BF6FF01B0687593A44DB
:1011B8004FEA734787EAF34787EA93273A44436835
:1011C8004FEAF31787EAB34787EAD3073A4440F868
:1011D800042B87593B444FEA744787EAF44787EA68
:1011E80094273B4444684FEAF41787EAB44787EAF0
:1011F800D4073B4440F8043B013DC0D1A0F13C007A
:10120800076A3C444FEA724787EAF24787EA92271F
:101218003C4402684FEAF21787EAB24787EAD207E6
:101228003C44C463F0BC4FF0020288EA781C8CEAA4
:10123800F84C0BEBBC1C8AEA090303EA080383EAAF
:101248000A039C4450F8043B9C4451F8043B9C44DA
:10125800674444EA050B0BEA060B04EA05034BEA6C
:10126800030BE34484EAF42383EA34530BEBB30B14
:1012780087EA771C8CEAF74C0AEBBC1C89EA08035E
:1012880003EA070383EA09039C4450F8043B9C449F
:1012980051F8043B9C4466444BEA040A0AEA050AEE
:1012A8000BEA04034AEA030AE2448BEAFB2383EAD3
:1012B8003B530AEBB30A86EA761C8CEAF64C09EB38
:1012C800BC1C88EA070303EA060383EA08039C4474
:1012D80050F8043B9C4451F8043B9C4465444AEA5A
:1012E8000B0909EA04090AEA0B0349EA0309E1447C
:1012F8008AEAFA2383EA3A5309EBB30985EA751CAB
:101308008CEAF54C08EBBC1C87EA060303EA0503E4
:1013180083EA07039C4450F8043B9C4451F8043B7F
:101328009C44644449EA0A0808EA0B0809EA0A03E3
:1013380048EA0308E04489EAF92383EA395308EBC9
:10134800B30884EA741C8CEAF44C07EBBC1C86EAEC
:10135800050303EA040383EA06039C4450F8043BAC
:101368009C4451F8043B9C44E34448EA090707EAD3
:101378000A0708EA090347EA0307674488EAF823E3
:1013880083EA385307EBB3078BEA7B1C8CEAFB4CE8
:1013980006EBBC1C85EA040303EA0B0383EA050396
:1013A8009C4450F8043B9C4451F8043B9C44E24460
:1013B80047EA080606EA090607EA080346EA0306B2
:1013C800664487EAF72383EA375306EBB3068AEACB
:1013D8007A1C8CEAFA4C05EBBC1C84EA0B0303EA82
:1013E8000A0383EA04039C4450F8043B9C4451F8E4
:1013F800043B9C44E14446EA070505EA080506EA79
:10140800070345EA0305654486EAF62383EA36536B
:1014180005EBB30589EA791C8CEAF94C04EBBC1C92
:101428008BEA0A0303EA090383EA0B039C4450F896
:10143800043B9C4451F8043B9C44E04445EA0604C0
:1014480004EA070405EA060344EA0304644485EA57
:10145800F52383EA355304EBB304013A7FF4E5AE90
:10146800A0F14000BEF1010E7FF483AEA0F1400C64
:101478009CE80F00001949199219DB19ACE80F0014
:101488009CE80F004044494452445B44ACE80F00D8
:10149800BDE8F08F2DE90050ACF1400288B0C3CA16
:1014A800CDE90001B2E80303CDE90201B2E8300C4E
:1014B800CDE90445B2E80350CDE9060184EAD460D9
:1014C80080EA451085EAD56181EA441180EA141062
:1014D80080EA057081EA151181EA04711CEB903CE1
:1014E8004EEB913E1CEB814C4EEB804EDDE9062322
:1014F80082EA0A0083EA0B01204029405040594003
:101508001CEB000C5EEB010E0A980899D0E9004527
:101518001CEB040C5EEB050ED1E900451CEB040C3A
:101528005EEB050E18EB0C0859EB0E09D0E90245E5
:1015380012196B41D1E9024512196B41DDE90445E5
:101548008AEA04008BEA050110EA080011EA090199
:1015580090EA0A0091EA0B0112184B4188EAD86018
:1015680080EA491089EAD96181EA481180EA1810AD
:1015780080EA097081EA191181EA087112EB903248
:1015880043EB913312EB814243EB8043CDE90623D1
:10159800DDE90023DDE9024582EAD22080EA4350F2
:1015A80083EAD32181EA425180EA921080EA83607B
:1015B80081EA931181EA82611CEB107C4EEB117E6B
:1015C8001CEB011C4EEB001E82EA0601324001EAC8
:1015D800040050401CEB000C01EA0C00504083EA68
:1015E80007023B4012EA050159405EEB010E02EA90
:1015F8000E015940DDE90623A4185D41CDE90245F5
:1016080012184B418CEADC2080EA4E508EEADE212B
:1016180081EA4C5180EA9C1080EA8E6081EA9E1132
:1016280081EA8C6112EB107243EB117312EB011219
:1016380043EB0013CDE9062384EAD46080EA451021
:1016480085EAD56181EA441180EA141080EA0570C0
:1016580081EA151181EA04711AEB903A4BEB913B40
:101668001AEB814A4BEB804BDDE9042382EA080040
:1016780083EA090120402940504059401AEB000AEA
:101688005BEB010B0A980899D0E904451AEB040AA8
:101698005BEB050BD1E904451AEB040A5BEB050B80
:1016A80016EB0A0657EB0B07D0E9064512196B41F2
:1016B800D1E9064512196B41DDE9024588EA0400C3
:1016C80089EA05013040394090EA080091EA0901A9
:1016D80012184B4186EAD66080EA471087EAD7613C
:1016E80081EA461180EA161080EA077081EA17112C
:1016F80081EA067112EB903243EB913312EB81428F
:1017080043EB8043CDE90423DDE90623DDE9004509
:1017180082EAD22080EA435083EAD32181EA425107
:1017280080EA921080EA836081EA931181EA8261FB
:101738001AEB107A4BEB117B1AEB011A4BEB001BDF
:1017480082EA0C0112EA0C0201EA040050401AEB8A
:10175800000A01EA0A00504083EA0E0213EA0E0367
:1017680012EA050159405BEB010B02EA0B015940F3
:10177800DDE90423A4185D41CDE9004512184B4169
:101788008AEADA2080EA4B508BEADB2181EA4A5167
:1017980080EA9A1080EA8B6081EA9B1181EA8A616B
:1017A80012EB107243EB117312EB011243EB0013AF
:1017B800CDE9042384EAD46080EA451085EAD5613E
:1017C80081EA441180EA141080EA057081EA151153
:1017D80081EA047118EB903849EB913918EB81488C
:1017E80049EB8049DDE9022382EA060083EA070122
:1017F800204029405040594018EB000859EB010996
:101808000A980899D0E9084518EB040859EB050926
:10181800D1E9084518EB040859EB05091CEB080C3D
:101828005EEB090ED0E90A4512196B41D1E90A4568
:1018380012196B41DDE9004586EA040087EA0501D3
:1018480010EA0C0011EA0E017040794012184B4161
:101858008CEADC6080EA4E108EEADE6181EA4C1187
:1018680080EA1C1080EA0E7081EA1E1181EA0C7170
:1018780012EB903243EB913312EB814243EB8043FE
:10188800CDE90223DDE90423DDE9064582EAD22019
:1018980080EA435083EAD32181EA425180EA9210D8
:1018A80080EA836081EA931181EA826118EB1078FB
:1018B80049EB117918EB011849EB001982EA0A0182
:1018C80012EA0A0201EA0400504018EB000801EA93
:1018D8000800504083EA0B0213EA0B0312EA0501E1
:1018E800594059EB010902EA09015940DDE902238F
:1018F800A4185D41CDE9064512184B4188EAD82065
:1019080080EA495089EAD92181EA485180EA981049
:1019180080EA896081EA991181EA886112EB107284
:1019280043EB117312EB011243EB0013CDE90223D1
:1019380084EAD46080EA451085EAD56181EA4411D9
:1019480080EA141080EA057081EA151181EA0471B1
:1019580016EB903647EB913716EB814647EB8047FD
:10196800DDE9002382EA0C0083EA0E0120402940C9
:101978005040594036184F410A980899D0E90C450B
:1019880036196F41D1E90C4536196F411AEB060A31
:101998005BEB070BD0E90E4512196B41D1E90E45F7
:1019A80012196B41DDE906458CEA04008EEA05014F
:1019B80010EA0A0011EA0B0190EA0C0091EA0E0104
:1019C80012184B418AEADA6080EA4B108BEADB6135
:1019D80081EA4A1180EA1A1080EA0B7081EA1B1129
:1019E80081EA0A7112EB903243EB913312EB814298
:1019F80043EB8043CDE90023DDE90223DDE904451B
:101A080082EAD22080EA435083EAD32181EA425114
:101A180080EA921080EA836081EA931181EA826108
:101A280016EB107647EB117716EB011647EB00170C
:101A380082EA080112EA080201EA04005040361856
:101A480001EA0600504083EA090213EA090312EA90
:101A5800050159404F4102EA07015940DDE90023D9
:101A6800A4185D41CDE9044512184B4186EAD620F9
:101A780080EA475087EAD72181EA465180EA9610E2
:101A880080EA876081EA971181EA866112EB107219
:101A980043EB117312EB011243EB0013CDE9002362
:101AA80084EAD46080EA451085EAD56181EA441168
:101AB80080EA141080EA057081EA151181EA047140
:101AC8001CEB903C4EEB913E1CEB814C4EEB804E58
:101AD800DDE9062382EA0A0083EA0B012040294057
:101AE800504059401CEB000C5EEB010E0A98089917
:101AF800D0E910451CEB040C5EEB050ED1E910454E
:101B08001CEB040C5EEB050E18EB0C0859EB0E09E8
:101B1800D0E9124512196B41D1E9124512196B41EE
:101B2800DDE904458AEA04008BEA050110EA0800A9
:101B380011EA090190EA0A0091EA0B0112184B41D7
:101B480088EAD86080EA491089EAD96181EA4811AF
:101B580080EA181080EA097081EA191181EA08718F
:101B680012EB903243EB913312EB814243EB80430B
:101B7800CDE90623DDE90023DDE9024582EAD2202A
:101B880080EA435083EAD32181EA425180EA9210E5
:101B980080EA836081EA931181EA82611CEB107C00
:101BA8004EEB117E1CEB011C4EEB001E82EA060177
:101BB800324001EA040050401CEB000C01EA0C0022
:101BC800504083EA07023B4012EA050159405EEBA8
:101BD800010E02EA0E015940DDE90623A4185D4111
:101BE800CDE9024512184B418CEADC2080EA4E50C0
:101BF8008EEADE2181EA4C5180EA9C1080EA8E60F0
:101C080081EA9E1181EA8C6112EB107243EB117329
:101C180012EB011243EB0013CDE9062384EAD460EA
:101C280080EA451085EAD56181EA441180EA1410FA
:101C380080EA057081EA151181EA04711AEB903A7D
:101C48004BEB913B1AEB814A4BEB804BDDE90423CC
:101C580082EA080083EA090120402940504059409F
:101C68001AEB000A5BEB010B0A980899D0E91445B6
:101C78001AEB040A5BEB050BD1E914451AEB040ACD
:101C88005BEB050B16EB0A0657EB0B07D0E916457D
:101C980012196B41D1E9164512196B41DDE902456C
:101CA80088EA040089EA05013040394090EA0800D2
:101CB80091EA090112184B4186EAD66080EA47107A
:101CC80087EAD76181EA461180EA161080EA077030
:101CD80081EA171181EA067112EB903243EB9133D6
:101CE80012EB814243EB8043CDE90423DDE906236F
:101CF800DDE9004582EAD22080EA435083EAD32115
:101D080081EA425180EA921080EA836081EA931165
:101D180081EA82611AEB107A4BEB117B1AEB011AFC
:101D28004BEB001B82EA0C0112EA0C0201EA0400E8
:101D380050401AEB000A01EA0A00504083EA0E02FA
:101D480013EA0E0312EA050159405BEB010B02EAA4
:101D58000B015940DDE90423A4185D41CDE9004594
:101D680012184B418AEADA2080EA4B508BEADB21D1
:101D780081EA4A5180EA9A1080EA8B6081EA9B11D5
:101D880081EA8A6112EB107243EB117312EB0112B4
:101D980043EB0013CDE9042384EAD46080EA4510BC
:101DA80085EAD56181EA441180EA141080EA057059
:101DB80081EA151181EA047118EB903849EB9139E1
:101DC80018EB814849EB8049DDE9022382EA0600E5
:101DD80083EA0701204029405040594018EB000889
:101DE80059EB01090A980899D0E9184518EB040835
:101DF80059EB0509D1E9184518EB040859EB050911
:101E08001CEB080C5EEB090ED0E91A4512196B4160
:101E1800D1E91A4512196B41DDE9004586EA04004B
:101E280087EA050110EA0C0011EA0E0170407940BA
:101E380012184B418CEADC6080EA4E108EEADE61B3
:101E480081EA4C1180EA1C1080EA0E7081EA1E11AA
:101E580081EA0C7112EB903243EB913312EB814221
:101E680043EB8043CDE90223DDE90423DDE90645A0
:101E780082EAD22080EA435083EAD32181EA4251A0
:101E880080EA921080EA836081EA931181EA826194
:101E980018EB107849EB117918EB011849EB001988
:101EA80082EA0A0112EA0A0201EA0400504018EB29
:101EB800000801EA0800504083EA0B0213EA0B030A
:101EC80012EA0501594059EB010902EA0901594092
:101ED800DDE90223A4185D41CDE9064512184B41FE
:101EE80088EAD82080EA495089EAD92181EA48510C
:101EF80080EA981080EA896081EA991181EA88610C
:101F080012EB107243EB117312EB011243EB001347
:101F1800CDE9022384EAD46080EA451085EAD561D8
:101F280081EA441180EA141080EA057081EA1511EB
:101F380081EA047116EB903647EB913716EB814630
:101F480047EB8047DDE9002382EA0C0083EA0E01B3
:101F5800204029405040594036184F410A98089966
:101F6800D0E91C4536196F41D1E91C4536196F4136
:101F78001AEB060A5BEB070BD0E91E4512196B41F9
:101F8800D1E91E4512196B41DDE906458CEA0400CA
:101F98008EEA050110EA0A0011EA0B0190EA0C002A
:101FA80091EA0E0112184B418AEADA6080EA4B1076
:101FB8008BEADB6181EA4A1180EA1A1080EA0B7029
:101FC80081EA1B1181EA0A7112EB903243EB9133DB
:101FD80012EB814243EB8043CDE90023DDE9022384
:101FE800DDE9044582EAD22080EA435083EAD3211E
:101FF80081EA425180EA921080EA836081EA931173
:1020080081EA826116EB107647EB117716EB011621
:1020180047EB001782EA080112EA080201EA040005
:102028005040361801EA0600504083EA090213EAD4
:10203800090312EA050159404F4102EA07015940D4
:10204800DDE90023A4185D41CDE9044512184B4190
:1020580086EAD62080EA475087EAD72181EA4651A6
:1020680080EA961080EA876081EA971181EA8661A2
:1020780012EB107243EB117312EB011243EB0013D6
:10208800CDE900230A9880300A90089AA2F140020C
:102098001BBCC3C2A2E818031BBCA2E8030CA2E83D
:1020A8001850BDE8009000BF00B59CE8F00FDCE9CF
:1020B8001201DCE91C23241845EB01054FEA560EF2
:1020C8008EEAC77E8EEA162E8EEA076E8EEAD61E36
:1020D8008EEA476E14EB0E044FEA570E8EEAC67E60
:1020E8008EEA172E8EEA066E8EEAD71E45EB0E058F
:1020F8004FEAD24E8EEA433E8EEAC20E8EEA537EF5
:102108008EEA921E8EEA836E14EB0E044FEAD34ECB
:102118008EEA423E8EEAC30E8EEA527E8EEA931E05
:1021280045EB0E05DCE91401DCE91E23361847EB04
:1021380001074FEA580E8EEAC97E8EEA182E8EEAFB
:10214800096E8EEAD81E8EEA496E16EB0E064FEA25
:10215800590E8EEAC87E8EEA192E8EEA086E8EEA2D
:10216800D91E47EB0E074FEAD24E8EEA433E8EEA5F
:10217800C20E8EEA537E8EEA921E8EEA836E16EBAC
:102188000E064FEAD34E8EEA423E8EEAC30E8EEA20
:10219800527E8EEA931E47EB0E07DCE9160118EB18
:1021A800000849EB01094FEA5A0E8EEACB7E8EEA07
:1021B8001A2E8EEA0B6E8EEADA1E8EEA4B6E18EB3A
:1021C8000E084FEA5B0E8EEACA7E8EEA1B2E8EEA56
:1021D8000A6E8EEADB1E49EB0E094FEAD44E8EEAF0
:1021E800453E8EEAC40E8EEA557E8EEA941E8EEA2D
:1021F800856E18EB0E084FEAD54E8EEA443E8EEAFD
:10220800C50E8EEA547E8EEA951E49EB0E09DCE96E
:102218001801DCE908231AEB000A4BEB010B4FEA23
:10222800520E8EEAC37E8EEA122E8EEA036E8EEA74
:10223800D21E8EEA436E1AEB0E0A4FEA530E8EEA4E
:10224800C27E8EEA132E8EEA026E8EEAD31E4BEB06
:102258000E0B4FEAD64E8EEA473E8EEAC60E8EEA3F
:10226800577E8EEA961E8EEA876E1AEB0E0A4FEAA2
:10227800D74E8EEA463E8EEAC70E8EEA567E8EEA24
:10228800971E4BEB0E0BACE8F00FDCE91201DCE912
:102298000267121843EB01034FEA560E8EEAC77E17
:1022A8008EEA162E8EEA076E8EEAD61E8EEA476EE4
:1022B80012EB0E024FEA570E8EEAC67E8EEA172EF2
:1022C8008EEA066E8EEAD71E43EB0E034FEAD84E0F
:1022D8008EEA493E8EEAC80E8EEA597E8EEA981E2C
:1022E8008EEA896E12EB0E024FEAD94E8EEA483E0C
:1022F8008EEAC90E8EEA587E8EEA991E43EB0E03CB
:10230800DCE91401DCE90489361847EB01074FEAD8
:10231800580E8EEAC97E8EEA182E8EEA096E8EEA6B
:10232800D81E8EEA496E16EB0E064FEA590E8EEA53
:10233800C87E8EEA192E8EEA086E8EEAD91E47EB01
:102348000E074FEADA4E8EEA4B3E8EEACA0E8EEA46
:102358005B7E8EEA9A1E8EEA8B6E16EB0E064FEAAD
:10236800DB4E8EEA4A3E8EEACB0E8EEA5A7E8EEA23
:102378009B1E47EB0E07DCE91601DCE906AB18EB00
:10238800000849EB01094FEA5A0E8EEACB7E8EEA25
:102398001A2E8EEA0B6E8EEADA1E8EEA4B6E18EB58
:1023A8000E084FEA5B0E8EEACA7E8EEA1B2E8EEA74
:1023B8000A6E8EEADB1E49EB0E094FEAD24E8EEA10
:1023C800433E8EEAC20E8EEA537E8EEA921E8EEA53
:1023D800836E18EB0E084FEAD34E8EEA423E8EEA21
:1023E800C30E8EEA527E8EEA931E49EB0E09DCE993
:1023F80008011AEB040A4BEB050B4FEA500E8EEA64
:10240800C17E8EEA102E8EEA016E8EEAD01E8EEA0A
:10241800416E1AEB0E0A4FEA510E8EEAC07E8EEA22
:10242800112E8EEA006E8EEAD11E4BEB0E0B4FEA90
:10243800D64E8EEA473E8EEAC60E8EEA577E8EEA62
:10244800961E8EEA876E1AEB0E0A4FEAD74E8EEA70
:10245800463E8EEAC70E8EEA567E8EEA971E4BEBF4
:102468000E0BACE8CC0F5CE90E45DCE902670019FD
:1024780041EB05014FEA560E8EEAC77E8EEA162E0C
:102488008EEA076E8EEAD61E8EEA476E10EB0E00B5
:102498004FEA570E8EEAC67E8EEA172E8EEA066E31
:1024A8008EEAD71E41EB0E014FEAD84E8EEA493E1E
:1024B8008EEAC80E8EEA597E8EEA981E8EEA896EDA
:1024C80010EB0E004FEAD94E8EEA483E8EEAC90E4E
:1024D8008EEA587E8EEA991E41EB0E015CE90C45A6
:1024E800DCE90489361947EB05074FEA580E8EEAEE
:1024F800C97E8EEA182E8EEA096E8EEAD81E8EEAFA
:10250800496E16EB0E064FEA590E8EEAC87E8EEA21
:10251800192E8EEA086E8EEAD91E47EB0E074FEA8F
:10252800DA4E8EEA4B3E8EEACA0E8EEA5B7E8EEA61
:102538009A1E8EEA8B6E16EB0E064FEADB4E8EEA7B
:102548004A3E8EEACB0E8EEA5A7E8EEA9B1E47EBF7
:102558000E075CE90A45DCE906AB18EB040849EB11
:1025680005094FEA5A0E8EEACB7E8EEA1A2E8EEABB
:102578000B6E8EEADA1E8EEA4B6E18EB0E084FEAE7
:102588005B0E8EEACA7E8EEA1B2E8EEA0A6E8EEAF1
:10259800DB1E49EB0E094FEAD04E8EEA413E8EEA29
:1025A800C00E8EEA517E8EEA901E8EEA816E18EB7E
:1025B8000E084FEAD14E8EEA403E8EEAC10E8EEAF0
:1025C800507E8EEA911E49EB0E09DCE908451AEBAC
:1025D800020A4BEB030B4FEA540E8EEAC57E8EEAD5
:1025E800142E8EEA056E8EEAD41E8EEA456E1AEB1C
:1025F8000E0A4FEA550E8EEAC47E8EEA152E8EEA32
:10260800046E8EEAD51E4BEB0E0B4FEAD64E8EEAC1
:10261800473E8EEAC60E8EEA577E8EEA961E8EEAF0
:10262800876E1AEB0E0A4FEAD74E8EEA463E8EEABE
:10263800C70E8EEA567E8EEA971E4BEB0E0BACE861
:10264800C30F5CE90E23DCE90267A41845EB030518
:102658004FEA560E8EEAC77E8EEA162E8EEA076E6F
:102668008EEAD61E8EEA476E14EB0E044FEA570E1A
:102678008EEAC67E8EEA172E8EEA066E8EEAD71E80
:1026880045EB0E054FEAD84E8EEA493E8EEAC80E53
:102698008EEA597E8EEA981E8EEA896E14EB0E0435
:1026A8004FEAD94E8EEA483E8EEAC90E8EEA587E27
:1026B8008EEA991E45EB0E055CE90C23DCE90489DA
:1026C800B61847EB03074FEA580E8EEAC97E8EEA22
:1026D800182E8EEA096E8EEAD81E8EEA496E16EB1F
:1026E8000E064FEA590E8EEAC87E8EEA192E8EEA39
:1026F800086E8EEAD91E47EB0E074FEADA4E8EEACD
:102708004B3E8EEACA0E8EEA5B7E8EEA9A1E8EEAEF
:102718008B6E16EB0E064FEADB4E8EEA4A3E8EEAC9
:10272800CB0E8EEA5A7E8EEA9B1E47EB0E075CE9BB
:102738000A23DCE906AB18EB020849EB03094FEA68
:102748005A0E8EEACB7E8EEA1A2E8EEA0B6E8EEA2F
:10275800DA1E8EEA4B6E18EB0E084FEA5B0E8EEA15
:10276800CA7E8EEA1B2E8EEA0A6E8EEADB1E49EBC3
:102778000E094FEAD44E8EEA453E8EEAC40E8EEA22
:10278800557E8EEA941E8EEA856E18EB0E084FEA87
:10279800D54E8EEA443E8EEAC50E8EEA547E8EEA07
:1027A800951E49EB0E095CE918231AEB000A4BEB5E
:1027B800010B4FEA520E8EEAC37E8EEA122E8EEA83
:1027C800036E8EEAD21E8EEA436E1AEB0E0A4FEAA9
:1027D800530E8EEAC27E8EEA132E8EEA026E8EEABF
:1027E800D31E4BEB0E0B4FEAD64E8EEA473E8EEACF
:1027F800C60E8EEA577E8EEA961E8EEA876E1AEB12
:102808000E0A4FEAD74E8EEA463E8EEAC70E8EEA89
:10281800567E8EEA971E4BEB0E0B8CE8F00FACF150
:10282800600C00BD2DE9F24F00F1400CB0E8F8074C
:10283800ACE8F807B0E8F807ACE8F807FEF72AFEB6
:10284800FFF732FCFEF726FEFFF72EFCFEF722FE0E
:10285800FFF72AFCFEF71EFEFFF726FCFEF71AFE1E
:10286800ACF1800808F1400998E80F0CB9E8F0507D
:102878000019694192197B411AEB0C0A4BEB0E0BBC
:10288800A8E80F0C98E80F0CB9E8F0500019694156
:1028980092197B411AEB0C0A4BEB0E0BA8E80F0CB4
:1028A80098E80F0099E8F0000019694192197B41F6
:1028B80088E80F00BDE8F88F81F0004102E000BF12
:1028C80083F0004330B54FEA41044FEA430594EAE8
:1028D800050F08BF90EA020F1FBF54EA000C55EA23
:1028E800020C7FEA645C7FEA655C00F0E2804FEAF4
:1028F8005454D4EB5555B8BF6D420CDD2C4480EAD6
:10290800020281EA030382EA000083EA010180EA05
:10291800020281EA0303362D88BF30BD11F0004F53
:102928004FEA01314FF4801C4CEA113102D0404289
:1029380061EB410113F0004F4FEA03334CEA1333C4
:1029480002D0524263EB430394EA050F00F0A780DC
:10295800A4F10104D5F1200E0DDB02FA0EFC22FAD7
:1029680005F2801841F1000103FA0EF2801843FACB
:1029780005F359410EE0A5F120050EF1200E012ABC
:1029880003FA0EFC28BF4CF0020C43FA05F3C018FA
:1029980051EBE37101F0004507D54FF0000EDCF173
:1029A800000C7EEB00006EEB0101B1F5801F1BD31C
:1029B800B1F5001F0CD349085FEA30004FEA3C0C20
:1029C80004F101044FEA445212F5800F80F09A8016
:1029D800BCF1004F08BF5FEA500C50F1000041EB1A
:1029E800045141EA050130BD5FEA4C0C404141EB1E
:1029F8000101013C28BFB1F5801FE9D291F0000F19
:102A080004BF01460020B1FA81F308BF2033A3F1C7
:102A18000B03B3F120020CDA0C3208DD02F1140CBE
:102A2800C2F10C0201FA0CF021FA02F10CE002F1F9
:102A38001402D8BFC2F1200C01FA02F120FA0CFCF2
:102A4800DCBF41EA0C019040E41AA2BF01EB04513B
:102A5800294330BD6FEA04041F3C1CDA0C340EDC39
:102A680004F11404C4F1200220FA04F001FA02F37C
:102A780040EA030021FA04F345EA030130BDC4F13A
:102A88000C04C4F1200220FA02F001FA04F340EA2F
:102A98000300294630BD21FA04F0294630BD94F0E0
:102AA800000F83F4801306BF81F480110134013DC7
:102AB8004EE77FEA645C18BF7FEA655C29D094EA38
:102AC800050F08BF90EA020F05D054EA000C04BFB6
:102AD8001946104630BD91EA030F1EBF00210020A1
:102AE80030BD5FEA545C05D14000494128BF41F040
:102AF800004130BD14F580043CBF01F5801130BDA4
:102B080001F0004545F0FE4141F470014FF000002E
:102B180030BD7FEA645C1ABF194610467FEA655CDF
:102B28001CBF0B46024650EA013406BF52EA033581
:102B380091EA030F41F4002130BD00BF90F0000F6F
:102B480004BF0021704730B54FF4806404F13204AB
:102B58004FF000054FF0000150E700BF90F0000F64
:102B680004BF0021704730B54FF4806404F132048B
:102B780010F0004548BF40424FF000013EE700BF5B
:102B880042004FEAE2014FEA31014FEA02701FBFEB
:102B980012F07F4393F07F4F81F06051704732F01D
:102BA8007F4208BF704793F07F4F04BF41F4002174
:102BB800704730B54FF4607401F0004521F00041D2
:102BC8001CE700BF50EA010208BF704730B54FF05C
:102BD80000050AE050EA010208BF704730B511F05D
:102BE800004502D5404261EB41014FF4806404F195
:102BF80032045FEA915C3FF4D8AE4FF003025FEA1B
:102C0800DC0C18BF03325FEADC0C18BF033202EB9E
:102C1800DC02C2F1200300FA03FC20FA02F001FAF8
:102C280003FE40EA0E0021FA02F11444BDE600BF9B
:102C380070B54FF0FF0C4CF4E06C1CEA11541DBF4A
:102C48001CEA135594EA0C0F95EA0C0F00F0DEF815
:102C58002C4481EA030621EA4C5123EA4C5350EAFA
:102C6800013518BF52EA033541F4801143F480134B
:102C780038D0A0FB02CE4FF00005E1FB02E506F0DC
:102C88000042E0FB03E54FF00006E1FB03569CF031
:102C9800000F18BF4EF0010EA4F1FF04B6F5007F37
:102CA80064F5407404D25FEA4E0E6D4146EB0606A9
:102CB80042EAC62141EA55514FEAC52040EA5E5032
:102CC8004FEACE2EB4F1FD0C88BFBCF5E06F1ED8DC
:102CD800BEF1004F08BF5FEA500E50F1000041EB13
:102CE800045170BD06F0004646EA010140EA0200C0
:102CF80081EA0301B4EB5C04C2BFD4EB0C0541EAE2
:102D0800045170BD41F480114FF0000E013C00F3F6
:102D1800AB8014F1360FDEBF002001F0004170BD1A
:102D2800C4F10004203C35DA0C341BDC04F1140433
:102D3800C4F1200500FA05F320FA04F001FA05F2BF
:102D480040EA020001F0004221F0004110EBD3708C
:102D580021FA04F642EB06015EEA430E08BF20EAB8
:102D6800D37070BDC4F10C04C4F1200500FA04F35B
:102D780020FA05F001FA04F240EA020001F00041ED
:102D880010EBD37041F100015EEA430E08BF20EA60
:102D9800D37070BDC4F1200500FA05F24EEA020EA8
:102DA80020FA04F301FA05F243EA020321FA04F0D7
:102DB80001F0004121FA04F220EA020000EBD3708E
:102DC8005EEA430E08BF20EAD37070BD94F0000F8E
:102DD8000FD101F00046400041EB010111F4801FC2
:102DE80008BF013CF7D041EA060195F0000F18BF73
:102DF800704703F00046520043EB030313F4801FAF
:102E080008BF013DF7D043EA0603704794EA0C0F68
:102E18000CEA135518BF95EA0C0F0CD050EA41067E
:102E280018BF52EA4306D1D181EA030101F00041FB
:102E38004FF0000070BD50EA410606BF1046194623
:102E480052EA430619D094EA0C0F02D150EA01362F
:102E580013D195EA0C0F05D152EA03361CBF104670
:102E680019460AD181EA030101F0004141F0FE410F
:102E780041F470014FF0000070BD41F0FE4141F493
:102E8800780170BD70B54FF0FF0C4CF4E06C1CEA93
:102E980011541DBF1CEA135594EA0C0F95EA0C0F48
:102EA80000F0A7F8A4EB050481EA030E52EA033503
:102EB8004FEA013100F088804FEA03334FF0805524
:102EC80045EA131343EA12634FEA022245EA111551
:102ED80045EA10654FEA00260EF000419D4208BF02
:102EE800964244F1FD0404F5407402D25B084FEAAF
:102EF8003202B61A65EB03055B084FEA32024FF45B
:102F080080104FF4002CB6EB020E75EB030E22BFB7
:102F1800B61A754640EA0C005B084FEA3202B6EB77
:102F2800020E75EB030E22BFB61A754640EA5C0026
:102F38005B084FEA3202B6EB020E75EB030E22BFB6
:102F4800B61A754640EA9C005B084FEA3202B6EBB7
:102F5800020E75EB030E22BFB61A754640EADC0076
:102F680055EA060E18D04FEA051545EA16754FEAD8
:102F780006164FEAC30343EA52734FEAC2025FEAF6
:102F88001C1CC0D111F4801F0BD141EA00014FF085
:102F980000004FF0004CB6E711F4801F04BF014356
:102FA8000020B4F1FD0C88BFBCF5E06F3FF6AFAE72
:102FB800B5EB030C04BFB6EB020C5FEA500C50F102
:102FC800000041EB045170BD0EF0004E4EEA113185
:102FD80014EB5C04C2BFD4EB0C0541EA045170BD8C
:102FE80041F480114FF0000E013C90E645EA060ED0
:102FF8008DE60CEA135594EA0C0F08BF95EA0C0FFE
:103008003FF43BAF94EA0C0F0AD150EA01347FF445
:1030180034AF95EA0C0F7FF425AF104619462CE71C
:1030280095EA0C0F06D152EA03353FF4FDAE10467F
:10303800194622E750EA410618BF52EA43067FF4D0
:10304800C5AE50EA41047FF40DAF52EA43057FF460
:10305800EBAE12E74FF0FF3C06E000BF4FF0010C6B
:1030680002E000BF4FF0010C4DF804CD4FEA410CCF
:103078007FEA6C5C4FEA430C18BF7FEA6C5C1BD09C
:1030880001B050EA410C0CBF52EA430C91EA030F1D
:1030980002BF90EA020F0020704710F1000F91EA7A
:1030A800030F58BF994208BF90422CBFD8176FEA48
:1030B800E37040F0010070474FEA410C7FEA6C5C16
:1030C80002D150EA013C07D14FEA430C7FEA6C5C1D
:1030D800D6D152EA033CD3D05DF8040B704700BF49
:1030E8008446104662468C461946634600E000BF97
:1030F80001B5FFF7B7FF002848BF10F1000F01BD69
:103108004DF808EDFFF7F4FF0CBF012000205DF833
:1031180008FB00BF4DF808EDFFF7EAFF34BF0120B8
:1031280000205DF808FB00BF4DF808EDFFF7E0FF51
:1031380094BF012000205DF808FB00BF4DF808EDA2
:10314800FFF7CEFF94BF012000205DF808FB00BF09
:103158004DF808EDFFF7C4FF34BF012000205DF8EB
:1031680008FB00BF4A0011D212F5001211D20DD58A
:103178006FF47873B3EB62520ED44FEAC12343F075
:10318800004343EA505323FA02F070474FF000001F
:10319800704750EA013002D14FF0FF3070474FF0CE
:1031A800000070477BB972B90029BEBF00204FF0FC
:1031B800004106E008BF00281CBF6FF000414FF037
:1031C800FF3000F075B8ADF1080C6DE904CE0029A8
:1031D80009DB002B1ADB00F087F8DDF804E0DDE9F5
:1031E800022304B07047404261EB4101002B1BDB16
:1031F80000F07AF8DDF804E0DDE9022304B040428B
:1032080061EB4101524263EB43037047524263EB67
:10321800430300F069F8DDF804E0DDE9022304B0B7
:10322800404261EB41017047524263EB430300F0B7
:103238005BF8DDF804E0DDE9022304B0524263EBF9
:103248004303704753B94AB9002908BF00281CBF77
:103258004FF0FF314FF0FF3000F02AB8ADF1080C05
:103268006DE904CE00F040F8DDF804E0DDE9022362
:1032780004B07047D0B500220B4B06460F46FFF747
:10328800D7FCFFF76FFF0446FFF758FC0022074BF7
:10329800FFF7CEFC02460B4630463946FFF710FBD7
:1032A800FFF760FF2146D0BD0000F03D0000F0416F
:1032B800704700BF10F8012B11F8013B012A28BF05
:1032C8009A42F7D0D01A7047034611F8012B03F839
:1032D800012B002AF9D17047034613F8012B002A65
:1032E800FBD1181A013870472DE9F04786468C46FD
:1032F8000846089E154674461946002B40F0C180C2
:103308008542B2FA82F245D94AB1C2F1200300FAE5
:1033180002FC954094402EFA03F343EA0C0C4FEA62
:10332800154EA8B2230CBCFBFEF80EFB18CC08FB0C
:1033380000F943EA0C43994528D9EB1808F1FF37FF
:1033480004D2994502D9A8F102072B44A3EB09033B
:10335800A4B2B3FBFEFC0EFB1C330CFB00F044EAEA
:103368000344A04214D92C190CF1FF3304D2A04213
:1033780002D9ACF102032C44241A43EA07401EB1D7
:10338800D440002334607360BDE8F0874746DDE72A
:103398006346F1E792BB431B01214FEA154EAFB2DA
:1033A800200CB3FBFEFC0EFB1C330CFB07F840EAB9
:1033B8000343984561D9EB180CF1FF3004D29845C6
:1033C80002D9ACF102002B44A3EB0803A4B2B3FB6F
:1033D800FEFC0EFB1C330CFB07F744EA0344A74230
:1033E8004DD92C190CF1FF3304D2A74202D9ACF104
:1033F80002032C44E41B43EA0040C0E7C2F1200367
:103408009540944020FA03F12EFA03F34FEA154E43
:103418009040AFB20343B1FBFEFC0EFB1C10190C2D
:103428000CFB07F841EA0041884522D969180CF1DC
:10343800FF3004D2884502D9ACF102002944A1EB3F
:1034480008019BB2B1FBFEFC0EFB1C110CFB07F73D
:1034580043EA01439F420ED9EB180CF1FF3104D225
:103468009F4202D9ACF102012B44DB1B41EA004127
:1034780093E76046E3E76146F7E76046A4E76346FB
:10348800B8E7834206D916B9002108467CE7C6E9A1
:1034980000E0F9E7B3FA83F78FB9834201D37245A5
:1034A80008D8BEEB020460EB030301209C461EB95A
:1034B800002169E73846FAE7C6E9004CF8E7C7F1A2
:1034C800200CBB400EFA07F522FA0CF42EFA0CF188
:1034D800BA401C4320FA0CF3B8404FEA14490143A0
:1034E8001FFA84FEB3FBF9F809FB18300B0C08FB34
:1034F8000EFA43EA00439A4540D9E31808F1FF3031
:1035080004D29A4502D9A8F102002344A3EB0A0386
:1035180089B2B3FBF9F809FB183308FB0EFE41EA40
:1035280003418E452CD9611808F1FF3304D28E452A
:1035380002D9A8F10203214443EA0040A1EB0E019D
:10354800A0FB02984145CE46434602D306D14D45DD
:1035580004D20138B9EB020E68EB0403002EA7D0A1
:10356800B5EB0E0261EB030101FA0CFC22FA07F33A
:10357800F9404CEA0303C6E9003199E74046C5E73C
:103588004346D9E7000000002DE9F04FD1F88890B4
:10359800B5B00C4616460690B9F1000F01D1D1F826
:1035A8008C90D6F888A0BAF1000F01D1D6F88CA07B
:1035B80006F120052946069857F01DFE18B100208F
:1035C80035B0BDE8F08F069BD3F8F4104B6B33B1E0
:1035D80028461C3157F0E0FE08B10120F0E70698B4
:1035E8000AA904F5C67B57F0EDFD002840F08A8053
:1035F800BDF9B230002B00F085809DF9B37047B952
:10360800494658469DF8C4209DF9B27054F099FD7A
:103618003F1A42F20F72309B934209D16FF47A61DC
:1036280040F265730A9842189A4264D86FF05B03B7
:103638002046A7EB030855F0F4FCD4F8882003468D
:103648000AB9D4F88C200B218DF827100DF1270129
:103658000291216D0698CDE9008159460AF074FA65
:1036680004904946584694F8542054F06AFD494657
:10367800434694F85420054658460AF045F9F36F36
:10368800514696F85420814606F5C6700593D6F83B
:1036980064B054F056FD049B059A03F59C53083317
:1036A8009A42824699D8306DB0F57A6F2FDD236D36
:1036B800B3F57A6FACBF4FF000084FF0010851F036
:1036C800D2FF28B1206D51F0CEFF80F00100C0B2CA
:1036D8000BEB0A03ED1907931CD4059B049A03F519
:1036E8009C5308339A423FF66AAFB9F1190F3FF776
:1036F80066AF022745E051F0B6FF002896D16FF07B
:10370800580395E7D4E91F38676E0493A9E74FF08B
:103718000008D4E7079B03EB480808EB4008454539
:1037280015DD0598FFF70AFA824604988B46FFF7DD
:1037380005FA4FF033326C4BFFF77AFA02460B4624
:1037480050465946FFF7E6FC00287FF438AF059B42
:10375800049A03F59C5308339342FFF430AFB9F150
:10376800190F3FF72CAF15F1550F54DB15F1500F1A
:10377800BFDB15F14B0F50DB15F1460FB4BF042723
:1037880005270498FFF7DAF9804605988946FFF778
:10379800D5F90022554B82468B46FFF749FA024677
:1037A8000B4640464946FFF7D3FC002837D00A3776
:1037B800246D204651F057FF002840F08C806FF4AC
:1037C8007A6240F2657314449C428CBF0024012441
:1037D800366D304651F047FF00287ED16FF47A638A
:1037E8001E4440F265739E428CBF00260126069B4C
:1037F800A41BD3F8903C07EB44002BB19D4203DC9B
:10380800079A9A42C8BF0238079B5B1B9842CCBFF5
:1038180000200120D4E60127B3E70327B1E74FF0E2
:103828003332314B50465946FFF702FA02460B46EF
:1038380040464946FFF78CFC08B10537B8E728A38E
:10384800D3E9002350465946FFF7F2F902460B46E2
:1038580040464946FFF77CFC08B10237A8E7DDE996
:103868000423934201D20137A2E700221F4B4046AE
:103878004946FFF7DDF902460B4650465946FFF721
:1038880067FC08B10A3F93E74FF03332164B4046C6
:103898004946FFF7CDF902460B4650465946FFF711
:1038A80057FC08B1053F83E70DA3D3E90023404641
:1038B8004946FFF7BDF902460B4650465946FFF701
:1038C80047FC08B1023F73E7DDE90423934288BF50
:1038D80007F1FF376CE702247AE7022687E700BF83
:1038E8009A9999999999F13F3333F33F0000F83F3A
:1038F8002DE9F04F012984468E4687B064D8002907
:1039080042D033A3D3E9002333A7D7E9006734A50E
:10391800D5E900450FF2D00BDBE900AB34A1D1E9C2
:103928000001CDE9042334A3D3E90023CDE9002322
:1039380033A3D3E90023CDE9022333A3D3E900233A
:103948004FF000084FF00009CCE90A01DDE9040155
:10395800CCE90C01DDE90001CCE90E01DDE9020149
:10396800CCE910010020CCE90089CCE90289CCE936
:103978000467CCE90645CCE908ABCCE91223CCF8BE
:10398800D0E007B0BDE8F08F21A3D3E9002322A738
:10399800D7E90067CDE9042321A5D5E9004522A38D
:1039A800D3E900230FF2880BDBE900ABCDE9002354
:1039B80021A1D1E9000122A3D3E90023CDE9022303
:1039C80021A3D3E90023BBE76FF07400D9E700BF58
:1039D800310BC0FF67263367D89E05C15D9DBBCB01
:1039E80007D57C362A299A6217DD70305A01599119
:1039F80039590EF7D8EC2F1511155868874AB48E27
:103A0800A78FF9640D2E0CDBA44FFABE1D48B547ED
:103A1800D182E6AD7F520E5108C9BCF367E6096A48
:103A28003BA7CA8485AE67BB1F6C3E2B8C68059B81
:103A38002BF894FE72F36E3CF1361D5F3AF54FA5F4
:103A48006BBD41FBABD9831F79217E1319CDE05B98
:103A580030B417A3D3E9002300240025C0E90023CC
:103A680015A3D3E90023C0E9604515A5D5E90045AC
:103A7800C0E9022314A3D3E90023C0E9044514A52F
:103A8800D5E90045C0E9062313A3D3E90023C0E91B
:103A9800084513A5D5E90045C0E90A2312A3D3E9CF
:103AA8000023C0E90C4530BCC0E90E23704700BFB5
:103AB80008C9BCF367E6096A3BA7CA8485AE67BB39
:103AC8002BF894FE72F36E3CF1361D5F3AF54FA564
:103AD800D182E6AD7F520E511F6C3E2B8C68059B40
:103AE8006BBD41FBABD9831F79217E1319CDE05BF8
:103AF80030B417A3D3E9002300240025C0E900232C
:103B080015A3D3E90023C0E9604515A5D5E900450B
:103B1800C0E9022314A3D3E90023C0E9044514A58E
:103B2800D5E90045C0E9062313A3D3E90023C0E97A
:103B3800084513A5D5E90045C0E90A2312A3D3E92E
:103B48000023C0E90C4530BCC0E90E23704700BF14
:103B5800D89E05C15D9DBBCB07D57C362A299A62C4
:103B680017DD70305A01599139590EF7D8EC2F15D5
:103B7800310BC0FF6726336711155868874AB48E22
:103B8800A78FF9640D2E0CDBA44FFABE1D48B5476C
:103B98002DE9F0430446294E294FC1B0A3681B699B
:103BA80043B1012220460DF10301984710B941B0F5
:103BB800BDE8F0839DF8032033680A2A01D00D2A56
:103BC80036D100221F49FA541D48052264F0AEFA86
:103BD800054650BB0DF124080DF1040943464A4639
:103BE800384619494FF052F802281ED19822294622
:103BF8001AA864F0D7F84846CDF86490FFF76CFB34
:103C08008DF868004046CDF86C80FFF765FB40F200
:103C1800FF138DF87000ADF87A3024F0A5FC9C23D2
:103C2800014619AA094823F099FB00233360B5E738
:103C38007E2BDEBF591C3160FA54AFE7E82800201C
:103C4800485A00200ECB060014CB0600020056513D
:103C580010B59CB024F088FC0446482200210AA82C
:103C680064F0A0F82146482357480AAA5BF0D6FA20
:103C7800044658B1554B0322029300235449184671
:103C8800CDE900334FF07FFE1CB010BD514B03222D
:103C9800CDE901034E49034600904FF074FE9DF8AC
:103CA800280023F037FB4C4B0390CDE90143032256
:103CB80023462046464900944FF065FE0A9B052B93
:103CC800E2DD9DF85C0023F031FB444B0322CDE993
:103CD80001433F4923460390009420464FF053FE8A
:103CE8009DF85D0023F02EFB3D4B0390CDE9014389
:103CF800204623460322364900944FF044FE0CAB7D
:103D08000393384B2046CDE901430322234630492B
:103D180000944FF038FE05AA122306210DF1510038
:103D280027F0F0F9304B0322CDE901432849234617
:103D38000390009420464FF026FE9DF8570023F08C
:103D4800DDFA2A4B0390CDE901432046234603229E
:103D58001F4900944FF017FE169B03220393244B30
:103D68002046CDE901431A49234600944FF00BFE43
:103D78009DF85E0023F0AAFA1E4B0322CDE9014309
:103D8800134923460390009420464FF0FCFD9DF80C
:103D98005F0023F0A7FA184B0390CDE901432046B2
:103DA800234603220A4900944FF0EDFD189B032295
:103DB8000393124B2046CDE901430549234600945D
:103DC8004FF0E1FD60E700BF0700565123CB060026
:103DD8000C8A060039CB06004CCB060056CB0600F1
:103DE80069CB060077CB060083CB06008DCB060097
:103DF80096CB0600A2CB0600AFCB0600B7CB0600D9
:103E080030B585B0204C20465EF0B2FF034648B975
:103E18001E4A1F49CDE90102009001224FF0B3FD6F
:103E280005B030BD2269A1681368204623F040031D
:103E380013600B684FF420220621984700280EDBF8
:103E4800144D2B79DA0716D5A3685B694021204603
:103E58009847002140F6CD405FF0C7FBF1E70E4BD5
:103E680003900293002301221846CDE90033084944
:103E78004FF089FDD4E723691B685B06A36854BF2C
:103E88001B69DB68E2E700BFE4840600C0CB0600DC
:103E98000C8A0600EC280020D8CB060070B5002458
:103EA800454B86B00322204644490293CDE900449D
:103EB80023464FF068FD424B03220593414B2046B1
:103EC8000493414B3D490393404B0094CDE9014392
:103ED80023464FF058FD3E4E00253E4B03220293E9
:103EE80028462B46CDE9005534494FF04CFD4FF09C
:103EF800FF324FF0FF3338483EF0F6FD044668B90C
:103F0800364D374B1B78BBB9364A1846CDE90132D6
:103F18002A49032200934FF036FDDDE7324B039028
:103F2800CDE901532B4600951846012223494FF04D
:103F38002AFD204606B070BD26F08CFE3379014676
:103F480023F003033371002328461A4623F0D8FBD5
:103F5800034608B3254B0122029300231846CDE9F6
:103F6800003316494FF00FFD33799A071BD5DB074D
:103F7800B2D5FFF76DFE4FF0FF324FF0FF33164812
:103F88003EF0B2FD04460028BBD0174B03900293C5
:103F98000023CDE90033C7E7154A0849CDE90102F6
:103FA80000900322DEE7FFF753FE002142F267602C
:103FB8005FF01BFBD8E700BFFECB06000C8A0600AB
:103FC80017CC060023CC060031CC06003BCC0600FB
:103FD800EC28002068CC0600301500201C00565143
:103FE800C85A0020A3CC060086CC0600B6CC060032
:103FF800D0CC060010B50C4CA3682BB11B6C1BB1C0
:104008000022204609499847A3681B6A0BB1064855
:10401800984707484FF0A9FFBDE810404FF4E13139
:1040280004484FF0A2BF00BF20850600993B00005E
:10403800E5CC060017CD06002DE9F04F91B00093AE
:1040480002F004030293C2F3C20301338407054656
:104058000E46DDF868800392059340F0BB81041D8D
:1040680030B1072909D86FF01B0011B0BDE8F08FF7
:1040780001F007063444C6F10806009B4FF000091A
:104088004FF0040A591E4FF0FF334F460193CB46B9
:104098005346CDF810900DB1009A2260059800287B
:1040A80000F3E8809848009A824203D397488242F6
:1040B800C0F0E080039AA4EB050E92074FEA9E0039
:1040C80000F103810F2F00F2B180002D00F005816F
:1040D80007F140020DEB020C019A0CF8200C0CF8C9
:1040E800102C049801300490E7E07A285DD84B281A
:1040F8000ED8472859D829282DD8252852D054D841
:1041080020287AD02338D0F1000B4BEB000B74E059
:104118004C382E2849D8DFE800F07048484848480D
:104128004848484848484B484848484848484859F3
:10413800484B4B595959704B6D487048184B1848A3
:1041480048827F4B48484B487F0000204FF0000BC7
:104158004FF0040A38E001222A38C0B202FA00F00F
:1041680010EA0E0F49D110F0625C2FD110EA020B51
:1041780043D06046013C5444B4FBFAF40AFB04F40F
:10418800002D61D0A3EB050CA444B4453FF66BAFFA
:10419800002868D1042B47D158F8043B2360042336
:1041A80004342AE0019A013A01924FF0000B24E00E
:1041B80011F8010C6C2834D1002011F8023C834618
:1041C8006C2BC5D14FF0080A5346D3E708F107080E
:1041D80028F00708073424F00704F8E802AB35B1E3
:1041E80006982044B0423FF63EAFC4E900AB4FF01A
:1041F800000B08344FF0080A534611F8010F002845
:1042080078D0BBF1000F7FF470AF2528F5D14FF0BF
:10421800010B019B013301934FF0040AECE7584668
:1042280094E700208346A5E7082B02D06FF015001D
:104238001BE708F1070828F00708F8E80223C4E993
:10424800002308230834D8E768B9042B02D108F101
:104258000408A4E7082BE9D108F1070828F00708A3
:1042680008F10808EDE7059A013A059258F8042B79
:10427800009210E7039A900720D54FF0010CA4EBA9
:10428800050E4FEA9E00BEF5007FCFD20F2FCDD886
:10429800F5B107F140020DEB020E019AC0B20EF81B
:1042A800200C0EF8102CBCF1000F3FF41AAF60F090
:1042B8007F000EF8200C09F101090137C5F1080249
:1042C8004FF6DA7E0434069297E74FF0000CDAE7EF
:1042D800BCF1000F01D00136EFE702980236002842
:1042E800EBD10098CDE90631FEF7F6FFDDE906319E
:1042F8000644E2E7631BB3F5806F97D245B9A6F190
:104308000804E018B1E600BFD08306004C6C090031
:10431800029A9B0828602B709DF81030C2B1EB7090
:1043280085F80290B9F1000F05D0002208A8C5F160
:10433800010C97420ED14FF0000AC5F101030DF1AF
:10434800200801930DF1300B574512D1601B8CE604
:104358006B70E5E710F8013B190608D50CEB040E65
:10436800B64503F07F033FF67EAE04F8013B013209
:10437800DFE7B9F1000F03D098F90020002A17DB16
:10438800029BD3B11AF80B2004F8012B0022019BE1
:1043980018191044B0423FF666AE98F8000000992C
:1043A80004F8010B2046039263F0D5FC039A1444E9
:1043B8000AF1010A08F10108C6E798F8002055F843
:1043C80022300093029B009845F82230FEF784FFC4
:1043D800421CDCE76FF00D0047E600BF014B186098
:1043E800704700BFF004002080B505460E4617460A
:1043F80098463FF0A1F9034663F0DCFF0446DFF876
:104408001890424649F8003039463046A84754F8D3
:1044180009001DF051FE00BF0800000000B516227B
:1044280063F0C8FF024B1A504FF0FF305DF804FBF1
:104438000C0000000F2800B508D963F0BBFF092263
:10444800074B1A504FF0FF305DF804FB3022054B44
:1044580002FB0033D3E8AF3F002BEED00020F3E798
:104468000C000000FC0400203023434330B50D4904
:1044780008330B44D3E8AF2F92B1541ED3E8EF5F53
:10448800954204D1C3E8EC4FBCF1000FF6D1F1D14D
:10449800012A05D13023584300230A180B505360D2
:1044A80030BD00BFF404002038B504461546FFF7B8
:1044B800C1FF00280BDB094A59B1302303FB042351
:1044C8005B688B4205D063F075FF054B1D500020DB
:1044D80038BD30235C431059FAE700BFF4040020CC
:1044E8000C00000038B504461546FFF7A3FF002866
:1044F8000DDB30236343074AD0184068086015B1C4
:104508000C3313442B6030235C43105938BD002012
:10451800FCE700BFF404002070B500254FF0FF331E
:104528004FF0FF3218484FF040FD184BD3E8AF2F3B
:1045380082B10135102D03F13003F7D163F03AFF52
:1045480017224FF0FF35124B1A500F484FF02FFD2E
:10455800284670BD30246C43D3E8EF0F0130C3E820
:10456800E10F0029F8D10B4E331932515A609A6283
:1045780004F10C0030445EF033FD04F120003044B7
:104588005EF07DFFE1E700BF10130020FC0400206F
:104598000C000000F40400202DE9F04130241646F8
:1045A80044430F4A101911514660C362B6B1F3680B
:1045B800A3B163F0FFFE0B4F0C3450F807801319BA
:1045C800054640F2051230464FF0DEFCB8F15F0FA9
:1045D80004D0EB595F2B08BF45F80780BDE8F08190
:1045E800F40400200C000000F8B50546FFF722FF90
:1045F800002824DB30246C43124F04F10C063E449F
:104608004FF0FF324FF0FF3330464FF0CEFC3A19EF
:1046180053689B688BB1D26A385912F4404F0AD05C
:1046280029469847044630464FF0C1FC2846FFF714
:104638001BFF2046F8BD9847F4E71C46F3E74FF008
:10464800FF34F6E7F40400202DE9F047058B044613
:104658002807904611D4022905F0070540F0CC80C0
:1046680020464FF0B6FC78B10138218B042811D8C8
:10467800DFE800F0C2106D85950001290CBF45F0F8
:10468800100545F02005258388F31188BFF36F8F47
:10469800BDE8F08701F0070AAA4500F0A5800027C9
:1046A800B9463E46A368002B00F0BC8041F00801E3
:1046B800218388F31188BFF36F8FA168002900F068
:1046C800BA800D68002900F0B6803346524620466D
:1046D800D1F80480C047002D76D02B6829461D46A6
:1046E800F0E701F007035A1F012A1BD8002221F026
:1046F8000701062B276889B2C4E9002209D13B4685
:1047080003E0628B013262831B68002BF9D141F010
:104718000201204621834FF05CFC00287AD041F04A
:10472800200176E0042B0AD121F0070189B2204646
:1047380021834FF04EFC10B141F020012183218BE1
:1047480001F0070AAA454FD00027B946AAE723690E
:1047580021F0070141F00601062DD3F800902183CE
:104768002DD1B9F1000F3FD041F00801218388F322
:104778001188BFF36F8F20463949C84729E021F0D7
:104788000701236941F0040189B2042DD3F804908C
:104798002183E6D000274FF0040A3E4682E721F045
:1047A8000701236941F0050189B2052DD3F8089066
:1047B8002183D6D000274FF0050A3E4672E700272E
:1047C8004FF0060A3E466DE72B4687E7B9F1000F22
:1047D800D1D1EFF31188202383F31288BFF36F8FB1
:1047E800238B23F008032383258BEA062ED525F097
:1047F8001003238305F007056669218B002EBFF699
:1048080070AF00232768C4E9003321F0070141F0A5
:1048180001012183218B4FF0000901F0070AAA4505
:104828007FF440AF002F9CD041F00801218388F32A
:104838001188BFF36F8F002FC8D03D6839463346C3
:10484800524620464FF0F1FB2F46F4E7AB067FF5C2
:104858001BAF25F02003238305F0070500E700BF01
:104868005F4005002DE9F84F81462F480F464FF06D
:104878009BFC064670B92D4C0546A0464FF0010B2F
:10488800DFF8ACA0544507D3B9F1000F02D04FF0C0
:10489800010AE5B9BDE8F88F237B6BB12368DB68B3
:1048A8000BB12046984723681B6943B96368042203
:1048B8002046196800F0C4F801361034E2E72046B3
:1048C80098470028F2D00BFA06F31D43F4E7A946EF
:1048D80095FAA5F4B4FA84F40AFA04F3260108EB6D
:1048E80004146FEA030B25EA0305237B63B158F828
:1048F80006301B6993B94644736804222046196838
:1049080009EA0B0900F09CF8002DE1D127B14FF41A
:10491800A47000215EF069FE4D46BAE7204698472C
:104928000028F1D1E7E700BFFC280020548A0600E0
:10493800648A0600014B53F820007047489206002D
:1049480008B5034608462BB1044A136000F07EFA06
:10495800002008BD6FF01500FBE700BFF40700203A
:104968000023054A4FF400411370044A04481360B9
:10497800044A1360FFF7E4BFC95A0020F428002056
:10498800AD410500F828002070B50B4D297841B9D4
:104998000120FFF767FF094C094EB44202D30123F7
:1049A8002B7070BD63685B791BB1236820469B68D8
:1049B80098471034F1E700BFC95A0020548A06000E
:1049C800648A060010B5044606484FF0EDFB3CB17A
:1049D800054BD3E8EF1F0139C3E8E21F002AF8D1DD
:1049E80010BD00BFF4280020F828002070B50A4B3D
:1049F80005461B689847094C094EA860B44200D385
:104A080070BD63685B7923B12368294620461B681B
:104A180098471034F2E700BFF4070020548A0600D4
:104A2800648A0600044A054B9B1AB1EBD30F34BFC6
:104A380052F83100002070478C880600548A06001E
:104A4800084B10B4C31A44681B110133237143681F
:104A58009A7101224368196043685A7110BC4FF07B
:104A6800C1BB00BF548A06002DE9F04F87B004AFE0
:104A78000446D7E90EA90E46934698463D6BBAF10F
:104A8800000F1ED0C7F80490CDF8009010215346AF
:104A980000207A6BFFF7D0FAB0F5006F014611D30A
:104AA80040F2FF730393194B022202930023184923
:104AB8001846CDE900334FF0B3FB0C37BD46BDE8CF
:104AC800F08F514604F007040BF0070BE40044EAAA
:104AD8008B1444EA412444EA055417350D4425F063
:104AE8000705ADEB050D04ADBAF1000F07D0CDF801
:104AF800009053467A6B05F11000FFF79DFA434684
:104B08002246314628464FF072FBD6E782CD060092
:104B1800AC880600406820B1034BC01A40F3CF00B0
:104B280070474FF0FF3070478C8806000EB403B50D
:104B380003AB53F8042B0146044801931DF0AAFE69
:104B480002B05DF804EB03B0704700BF6542050092
:104B5800CA0605D48B064CBF02490349FFF7E6BFD6
:104B6800704700BF9C730800BACD06002DE9F04FCE
:104B780087B09DF8446004460D4690469946002E3D
:104B880000F0A280159B03F0020A03F001030493CE
:104B9800159B03F0080B03F4807305934FF025FB76
:104BA800024600283DD020469449FFF7BFFF07463C
:104BB800BAF1000F09D0159B13F0440F33D12A46E0
:104BC80020468F49FFF7B2FF0744049B53B18D4B32
:104BD800204653F826208C4B8C49002A08BF1A46D9
:104BE800FFF7A4FF059B002B49D0BBF1000F64D150
:104BF800B8F1000F66D0424620468549FFF796FF78
:104C08000546129B3D44002B6DD1149B002B73D19C
:104C1800159BDB0700F1EB8020461599FFF798FFFD
:104C2800D8E00746C4E77B4B18680028CCD07A4BFD
:104C38004FF47A7A1B684FF03C0CB5FBF3F5B5FBE3
:104C4800F0F14FF4616300FB11550AFB05F5B1FB68
:104C5800F3F2B5FBF0FE03FB121100FB1E55B1FB8E
:104C6800FCF30AFB05F5B5FBF0F50CFB1311204628
:104C78000091CDE901E56949FFF758FFA4E7BBF1C9
:104C8800000F1DD0664B204653F826206549FFF7D4
:104C98004DFF0546B8F1000F05D0424620465C4955
:104CA800FFF744FF0544B9F1000FAAD04A46204651
:104CB8005D49FFF73BFF0544A3E74FF00009E1E733
:104CC8005D46E7E745469CE7B9F1010F129B06D11F
:104CD800002B66D1149B002B7CD000250CE0002B08
:104CE800F8D052485EE05248129B224651494FF094
:104CF80009F9149B002B6AD0DFF83C81DFF83C915E
:104D0800149F2046102F159928BF10274FF0000B2D
:104D1800FFF71EFF5D4547DC139B494620461A787E
:104D2800FFF704FF4FF0010B1BF0070F03D14146BB
:104D38002046FFF7FBFE5F453DD9139B49462046B9
:104D480013F80B20FFF7F2FE0BF1010BBBF1100F6C
:104D5800EAD14FF0000A20463949FFF7E7FE5246EC
:104D6800DFF8E0B0139B20469A5CA2F120015F298E
:104D780028BF2E225946FFF7D9FE0AF1010ABAF1D7
:104D8800100F1DD01AF0070F03D141462046FFF738
:104D9800CDFE57455246E5D841462046FFF7C6FEA8
:104DA800EBE7234835469FE741462046FFF7BEFE1E
:104DB8000BF1010BAEE720462349FFF7B7FEC3E727
:104DC800139B3B441393149BDB1B149398D1002E25
:104DD8007FF41EAF6268A168D2E9002320684FF013
:104DE8002FFA002263681A6007B0BDE8F08F2046EA
:104DF800054A0649FFF79AFE0EE700BF787A0800D1
:104E0800C2CD060058920600BDCD060048610800D4
:104E1800E7CD06000429002000290020CBCD06009C
:104E28006C920600EBCD0600F1CD0600814205002C
:104E3800654205009D280200FECD0600F6CD06005D
:104E480000CE0600392D0900FCCD06000021012303
:104E5800064A904206D8064A01B901231360054B59
:104E680018607047012140085B00F2E740420F00DC
:104E780000290020042900200122014B1A707047E4
:104E8800CA5A0020014B0020196070471C290020D5
:104E980010B5064B0C461868FFF74CFD2146BDE8D7
:104EA800104003460F220248184700BF1C29002063
:104EB8009C9206000122F8B5084B094D094E1A705C
:104EC800D5E900470CB92C60F8BD214630463A4672
:104ED80000F00AF8241A0644F4E700BFCB5A002071
:104EE80010290020CC5A0020F8B507460E460424A5
:104EF800174D3246394600203DF07AF8C8B10123F3
:104F08002B70144B1B782BB93046F8BD5CB92C704C
:104F18004FF0FF3400203DF0F5F80028F4D02B784E
:104F2800002BF3D1F0E7013C41F288305DF01BFF24
:104F3800F0E72B7813B1013C04D12C702B78002BAF
:104F4800D7D1E1E741F288305DF00DFFF6E700BF09
:104F5800CA5A0020CB5A0020014B0360002070473A
:104F6800AC92060008B504484EF0FFFFBDE80840C3
:104F780002484EF0FABF00BF2ECE060063CE0600F0
:104F8800014848F05DBB00BFAC92060038B5044646
:104F980018B90F4B0F485B6898476168B1F5683FCF
:104FA80010D0B1F5680F0DD00B4DA9420AD011F4FD
:104FB8006861206807D0014608485DF0B0FF00230B
:104FC8002360656038BD142262F0ECFEF9E700BF8B
:104FD800B811002091CE06002C5F5CA9202E00207D
:104FE80008B560B34368B3F5683F0ED0B3F5680FF2
:104FF80018D0144A934220D000684FF0FF324FF087
:10500800FF333DF093FB58B115E001220368D3E864
:10501800EF1F002903D1C3E8E02F0028F7D10AD1F8
:10502800002008BD0368084A1B7803F5807352F80E
:105038002330002BF4D00548F3E70548F1E76FF477
:10504800E040EEE72C5F5CA900000350E98FFFFF0A
:10505800EA8FFFFF08B520B34368B3F5683F09D06E
:10506800B3F5680F13D0114A93421DD000683DF084
:105078004FFC14E000220368D3E8EF1F012903D195
:10508800C3E8E02F0028F7D109D0094808BD00215E
:105098000368084A1B7803F5807342F82310002040
:1050A800F4E76FF4E040F1E70348EFE72C5F5CA911
:1050B800E98FFFFF00000350EA8FFFFF10B5044699
:1050C80018B91D4B1D485B6898476368B3F5683F7E
:1050D8002FD0B3F5680F2CD0194A934219D1236801
:1050E80003BB4FF0FF324FF0FF33214615483DF028
:1050F800F9F908B923681BB90F4B13485B6898473F
:1051080014220021206862F04DFE4FF4686363604A
:1051180008E0B3F5683F0DD83A2B03D040F6BA62E1
:105128009342DED120685DF05BFF636843F03A0389
:10513800636010BD054AF3E7B811002091CE060060
:105148002C5F5CA9202E0020B7CE06003A00003A5A
:1051580008B506494023142205485DF0D2FEBDE893
:1051680008400449044848F02FBB00BF202900200C
:10517800202E0020B4920600C892060070B505469D
:105188008CB02022002104A862F00CFE2846134AA5
:10519800134904AB3FF080FB0446064670B1114B3F
:1051A8000393114B02930023CDE9003301221846E3
:1051B8000E494FF0A5F820460CB070BD284604A94A
:1051C8003FF038FC04460028F5D0064B00960393C0
:1051D800074BCDE901633346E8E700BF684C01009F
:1051E80038CF060027CF0600E4CE06002C8A06003A
:1051F80006CF060007B5084B0A461B680021009336
:10520800064B1B6862F043F8003818BF0120404283
:1052180003B05DF804FB00BF442E002030080020D6
:1052280008B50378032B01D0002008BD20220449CB
:10523800044861F019FC0028F6D10248F5E700BFE0
:10524800E01B08003C2E002013B50C461946074BFE
:105258001B680193064B1B680093234660F0F3FB21
:10526800003818BF0120404202B010BD442E002073
:105278003008002038B505460C4660F0D6FA0228FA
:1052880007D105200E4A0F4904F03AFA4FF0FF30D3
:1052980038BD204660F060FB014608B10020F7E702
:1052A8000834204661F099FC0028F7D022462046B1
:1052B800291D61F0F2FC003818BF01204042E7E7E1
:1052C800C91B0800A01B08002DE9F0410546F42081
:1052D8000E4651F016F9044640B12946F20000F096
:1052E800CFF9002806DA204651F00DF900242046AF
:1052F800BDE8F08122460021860004EB0013751AF0
:10530800A94202F11002A3F1100309DB21464FF074
:10531800010C294D294E60451CDCC4F8F000E6E775
:1053280052F8105C1F69043142F8107C1D6152F874
:105338000C5C5F6942F80C7C5D6152F8085C9F69FF
:1053480042F8087C9D6152F8045CDF6942F8047CED
:10535800DD61D4E710310F1F01F10C0E57F8042F4F
:10536800D3B256F82330BE45C3F3072355F823803C
:105378004FEA126356F82330C3F3072355F8233056
:1053880083EA3863C2F3074856F82880C2F3072235
:1053980056F82220C8F3072855F82880C2F30722B8
:1053A80055F8222083EA382383EA32433B60D5D17B
:1053B8000CF1010CAFE700BFD8920600D8960600A2
:1053C80084462DE9F04F0E6803684D6836BA5E4092
:1053D80043688C682DBA5D408368C96824BA5C400C
:1053E800C36809BA5940D0F8F0308DB05B109E46BA
:1053F8000193A14B0090370EDCF8100053F827708A
:105408005FFA81FA87EA0008EFB253F82770DCF8F0
:10541800140088EA3768C1F3074753F8277053F830
:105428002AA088EA3728C4F3072753F82770BEF163
:10543800010E88EA37484FEA156753F827704FEA94
:10544800186B87EA0009E7B253F82770DCF81800F0
:1054580089EA3769C6F3074753F8277089EA372975
:10546800C1F3072753F827704FEA116189EA3749D2
:105478004FEA146753F8277053F8211087EA00079A
:1054880087EA3A67C5F3074A53F82AA0DCF81C00F4
:1054980087EA3A27C6F3072AF6B253F82660C4F318
:1054A800074453F8244081EA000181EA3661C5F3D4
:1054B800072581EA342153F825404FEA196053F84B
:1054C8002AA081EA34410290C8F3074087EA3A47A4
:1054D8000390C1F307200490F8B205904FEA1760D3
:1054E8000690C9F307400790C8F30720C1F30745A2
:1054F8000890C8B24FEA11610A91C7F307415FFAF1
:1055080089FA5CF8206FC7F3072409900B91C9F357
:1055180007295FFA88F84CD053F82B7053F82A10F3
:10552800774053F8256087EA316753F8241087EAF3
:10553800362686EA31460299039853F82140DCF86A
:10554800041053F820504C400599079853F821103F
:10555800DCF80C7084EA316181EA3525049953F846
:10556800211085EA3145069953F82140DCF80810E6
:105578004C40099953F8211084EA316153F82040CE
:105588000B9881EA3424089953F8211084EA3144AD
:105598000A9953F82110794053F8287081EA376145
:1055A80053F8207081EA372153F8297081EA37418E
:1055B80021E7DDE9001301EB4310304B13F80A70C3
:1055C80013F80B10774087EA0167595D1C5D87EA7D
:1055D800014181EA04210C0E14700C0C5470D17036
:1055E8000C0A059994705C5C41684C400299595CBE
:1055F80084EA0161039C1C5D81EA04440499595CB6
:1056080084EA0124210E1171210C5171210A917132
:105618000999D4715C5C81686140069C1C5D81EAD3
:105628000461079C1C5D81EA0441089C1C5D81EAB9
:1056380004210C0E14720C0C54720C0AD172947260
:10564800C06813F8081041400A98185C81EA0061A4
:105658000B98185C13F8093081EA0041704681EA1A
:105668000323190E1173190C5173190A9173D3730B
:105678000DB0BDE8F08F00BFD89206000A1C0800E4
:10568800F0B50B68802A1BBA03604B681BBA4360ED
:105698008B681BBA8360CB681BBAC36035D1794964
:1056A800794A00F1A004C56811F8016BEBB252F811
:1056B8002330103003F47F4343EA066350F8106C3C
:1056C8007340C5F3072652F8266006F47F06734038
:1056D8002E0E52F82660C6F307267340C5F3074618
:1056E80052F82660360206F07F46734050F80C6C7C
:1056F8000360734050F8086C4360734083606B40EC
:10570800C3608442CFD10A20F0BD0B69C02A1BBAFE
:1057180003614B691BBA436142D15A4C5A4900F1A3
:10572800A805426914F8016BD3B251F823308542B9
:1057380003F47F4343EA0663066883EA0603C2F379
:10574800072651F8266006F47F0683EA06034FEA27
:10575800126651F82660C6F3072683EA0603C2F3E9
:10576800074651F826604FEA062606F07F4683EA88
:1057780006034668836183EA06038668C36183EA91
:105788000603C668036283EA0603436201D10C205C
:10579800BAE7066918307340036153404361C0E7B4
:1057A8008B69B2F5807F1BBA8361CB691BBAC36171
:1057B80064D1344C344A00F1C005C16914F8016B56
:1057C800CBB252F82330854203F47F4343EA0663A1
:1057D800066883EA0603C1F3072652F8266006F432
:1057E8007F0683EA06034FEA116652F82660C6F37D
:1057F800072683EA0603C1F3074652F826604FEAF4
:10580800062606F07F4683EA06034668036283EAB3
:1058180006038668436283EA0603C668836283EAEE
:105828000603C36201D10E206EE7C3F30726DFB279
:1058380052F8266052F8277006F47F46C7F3072708
:105848003E43076920307E401F0E52F82770C3F38D
:10585800074352F823303F0207F07F4703F47F03E2
:105868003B43734050F80C6C0361734050F8086C6C
:105878004361734083614B40C3619EE74FF0FF3043
:1058880042E700BF001C0800D8960600014A4DF008
:10589800D1B900BF0A1D080008B54FF0B6FB084B88
:1058A800984209D0A0F57A20A0F602400B2805D826
:1058B800044B33F9100008BD0120FCE70020FAE78B
:1058C80000AC0F0088CA0600B0F5004F11D0B0F543
:1058D800800F0ED0B0F5000F0BD0B0F1807F08D04C
:1058E800B0F1805F05D0044B0340181E18BF01209B
:1058F80070470120704700BF000C3F0CB0F5004F07
:105908000ED0B0F5800F0BD0B0F5000F08D0B0F175
:10591800805F05D0034B0340181E18BF0120704755
:1059280001207047E08D370D2DE9F84F14460F46DA
:1059380020220646002104F1080062F033FA012211
:105948000823072FC4E90023E360626140F2A480C2
:105958003278DD2A40F0A3807178BA1E914240F077
:105968009E80B01C4FF051FBDFF84481404540F069
:105978009680F188012940F09280A7F10802032A55
:105988001BD9F0184FF041FB4A4A904213D002321B
:10599800904207D0484BA0EB0309D9F1000040EB37
:1059A80009000301E360A7F10C03012B0AD864D1B5
:1059B8006FF0040062E00B46F4E7002A5DD06FF058
:1059C80002005BE000256560B28906F10E03A7F1CD
:1059D8000E01002A66D0B2EBA10F63DC1E46DFF889
:1059E800D490DFF8D8A0DFF8D0B030464FF00DFBE8
:1059F800484545D0504545D0A0EB0B0CDCF10000E4
:105A080040EB0C000001676801350743AA42676054
:105A180006F10406E9DCA1EB8201012903EB82050A
:105A280036DD0020606133F8222002350239002A71
:105A38003BD0B2EBA10F38DC2E460346DFF87C9052
:105A4800DFF870A030464FF0E0FA40451CD04845DA
:105A58001CD0A0EB0A07784278410001676901333E
:105A680007439A42676106F10406EBDCA1EB820169
:105A78000129C4BF35F82230A3610020BDE8F88FA2
:105A88000120C0E70820BEE70120E7E70220E5E79C
:105A9800F3D16FF00600F1E74FF0FF30EEE76FF05B
:105AA8000100EBE76FF00300E8E76FF00500E5E7BA
:105AB80001F2500000F2500004F2500002F25000CF
:105AC800B0F5807F02462DD014DC18282CD009DCD4
