:020000040000FA
:1000000088860420ADBC0200D5A5070099BC02007B
:1000100099BC020099BC020099BC020099BC020084
:1000200000000000000000000000000021BE0200EF
:1000300099BC020000000000B5BD020099BC02009E
:10004000A9BF0200A9BF0200A9BF0200A9BF020008
:10005000A9BF0200A9BF0200A9BF0200A9BF0200F8
:10006000A9BF0200A9BF0200A9BF0200A9BF0200E8
:10007000A9BF0200A9BF0200A9BF0200A9BF0200D8
:10008000A9BF0200A9BF0200A9BF0200A9BF0200C8
:10009000A9BF0200A9BF0200A9BF0200A9BF0200B8
:1000A000A9BF0200A9BF0200A9BF0200A9BF0200A8
:1000B000A9BF0200A9BF0200A9BF0200A9BF020098
:1000C000A9BF0200A9BF0200A9BF0200A9BF020088
:1000D000A9BF0200A9BF0200A9BF0200A9BF020078
:1000E000A9BF0200A9BF0200A9BF0200A9BF020068
:1000F000A9BF0200A9BF0200A9BF0200A9BF020058
:10010000A9BF0200A9BF0200A9BF0200A9BF020047
:10011000A9BF0200A9BF0200A9BF0200A9BF020037
:10012000A9BF0200A9BF0200A9BF0200A9BF020027
:10013000A9BF0200A9BF0200A9BF0200A9BF020017
:10014000A9BF0200A9BF0200A9BF0200A9BF020007
:04015000A9BF020041
:100158002DE9F14F03F11C0402EB840C4FEA930BD9
:100168008A68CB680868496800F046F93CE9F000FD
:100178006040694072407B400BF1060E4EE083EA16
:10018800134480EA134582EA134746BA96EA344490
:10019800604000F00F1684EA063420F00F1684EA57
:1001A800161054BA94EA0106724002F00F1486EA57
:1001B800043622F00F1486EA14124CBA65406940DE
:1001C80001F00F1485EA043521F00F1485EA1411A3
:1001D8005CBA67407B4003F00F1487EA043723F0CA
:1001E8000F1487EA141344BA44404DBA4D4056BA26
:1001F80056405FBA5F4087EA174886EA174B84EA99
:1002080017464FEA38488BEA1B4485EA1B4788EAB9
:100218001B4580EA3440694072407B4000F07034EE
:1002280000F0803500F00F3040EA440040EAD50085
:1002380080EA900404F0332480EA8400604001F0EE
:10024800703401F0803501F00F3141EA440141EA90
:10025800D50181EA910404F0332481EA84016140E4
:1002680002F0703402F0803502F00F3242EA4402A4
:1002780042EAD50282EA920404F0332482EA840234
:10028800624003F0703403F0803503F00F3343EA23
:10029800440343EAD50383EA930404F0332483EA4E
:1002A80084036340C943DB4381EA000483EA0446CC
:1002B80086EA020183EA014382EA334583EA14436A
:1002C8005C4084EA00077FEA040A8AEA024A8AEA6A
:1002D800010B87EA11488AEA374A80EA060181EA6F
:1002E8001A418AEA030A04EA0A00454088EA040730
:1002F80007EA0B0041408AEA0B0608EA060084EA8E
:1003080034428AEA3A4602EA0603584045404140E8
:1003180087EA37438BEA3B4003EA000985EA090587
:1003280082EA0309464006EA0906714085EA0100A7
:1003380005EA3546464006EA314181EA304181EA1C
:10034800364606EA304686EA354634400F4086EAA5
:10035800010508EA050886EA3640024088EA0208EC
:1003680081EA314213405C4080EA020309EA03094A
:1003780087EA0907674088EA040806EA0A0601EAE4
:100388000B018AEA0B0425408AEA3A44204045409A
:100398008BEA3B4B02EA0B02564084EA0B042340EB
:1003A80059406E40694087EA364080EA384080EA22
:1003B800060380EA104481EA134585EA344585EA54
:1003C80017427D4082EA354180EA05403CE9F00069
:1003D8006040694072407B40BEF1010E3FF6CFAEEF
:1003E80020BC00F05FF828606960AA60EB60BDE897
:1003F800F08F00BF00F000BA80EA101404F0F01487
:1004080080EA0410604081EA111404F0F01481EAD3
:100418000411614082EA121404F0F01482EA041212
:10042800624083EA131404F0F01483EA041363406F
:1004380080EA102404F47F4480EA0420604081EAC2
:10044800112404F47F4481EA0421614082EA1224E1
:1004580004F47F4482EA0422624083EA132404F409
:100468007F4483EA0423634081EA500404F055344E
:1004780080EA4400614083EA520404F0553482EA79
:100488004402634082EA900404F0333480EA840032
:10049800624083EA910404F0333481EA84016340C2
:1004A800704700BF82EA900404F0333480EA840085
:1004B800624083EA910404F0333481EA84016340A2
:1004C80081EA500404F0553480EA4400614083EA2C
:1004D800520404F0553482EA4402634080EA10244E
:1004E80004F47F4480EA0420604081EA112404F483
:1004F8007F4481EA0421614082EA122404F47F44A3
:1005080082EA0422624083EA132404F47F4483EAE3
:100518000423634080EA101404F0F01480EA041005
:10052800604081EA111404F0F01481EA041161407A
:1005380082EA121404F0F01482EA0412624083EA98
:10054800131404F0F01483EA04136340704700BFE7
:100558002DE9F14F94464FEA930B8A68CB680868F7
:100568004968FFF749FF0BF1060E33E083EA1344AD
:1005780080EA134582EA134746BA96EA3444604053
:1005880000F00F1684EA063420F00F1684EA1610DD
:1005980054BA94EA0106724002F00F1486EA04364F
:1005A80022F00F1486EA14124CBA6540694001F033
:1005B8000F1485EA043521F00F1485EA14115CBA8A
:1005C80067407B4003F00F1487EA043723F00F14C9
:1005D80087EA1413BCE8F0006040694072407B4031
:1005E80000F0E03400F0103500F00F3040EA54001D
:1005F80040EAC50080EA900404F0332480EA8400CD
:10060800604001F0E03401F0103501F00F3141EAAB
:10061800540141EAC50181EA910404F0332481EAD6
:100628008401614002F0E03402F0103502F00F322C
:1006380042EA540242EAC50282EA920404F03324F0
:1006480082EA8402624003F0E03403F0103503F0DC
:100658000F3343EA540343EAC50383EA930404F0DF
:10066800332483EA8403634081EA324787EA1345E7
:1006780081EA354690EA060484EA034B82EA1B4283
:1006880080EA044484EA054483EA144A85EA144467
:100698008BEA044B84EA374481EA0B4181EA16412C
:1006A80004EA0A00454082EA04082BEA08004140AF
:1006B8008AEA0B0602EA060084EA34438AEA3A46E2
:1006C80003EA060778404540414088EA38478BEA04
:1006D8003B4007EA000985EA090583EA070946401D
:1006E80006EA0906714085EA010005EA35464640F2
:1006F80006EA314181EA304181EA364606EA304667
:1007080086EA3546344008EA010886EA01052A40A7
:1007180086EA364003405A4081EA31431F407C4014
:1007280080EA030709EA070988EA0908544088EAC1
:10073800020806EA0A0601EA0B018AEA0B021540DA
:100748008AEA3A42104045408BEA3B4003405E400B
:100758004240174079404D404E40E443F64386EA14
:1007680018435D4085EA054083EA134386EA03415E
:1007780083EA384284EA114383EA04435FEA334355
:10078800BEF1010E3FF6F2AE1ED4BCE8F0006040A8
:10079800694072407B4020BCFFF784FE2860696096
:1007A800AA60EB60BDE8F08F2DE9E0414FF2F0025E
:1007B80080EA1031114080EA01304840410882083F
:1007C800C3084FF0000E4FE700F0113001F011316F
:1007D80002F0113203F0113340EA410040EA82008E
:1007E80040EAC3004FF2F00280EA1031114080EA7B
:1007F80001304840BDE8E0812DE9F04F02F11C05C9
:100808000646074600EB850851F8040B043A46F8FB
:10081800040BF9D14FF0010CFFF7C6FF5FEA302057
:1008280080EA0C001ECF41404A4053405C401EC63F
:100838002000464517D04FEA4C0C1CF4807F18BFA7
:10084800ACF1E50C2C2DE7D03C2D06D1FFF7ACFF21
:1008580006CF41404A4006C6100006CF41404A40F4
:1008680006C61000D8E736E90F00FFF7C5FD043DBE
:1008780086E80F00F7D1BDE8F08F00BF70B491E8AB
:100888007800B2E802105B1854EB0C04B2E80210CE
:100898004D4156EB0C0680E878008041013070BC71
:1008A800704700BF70B491E87800B2E802105B1A94
:1008B80074EB0C04B2E802108D4176EB0C0680E86C
:1008C80078008041404270BC704700BF2DE9F007B6
:1008D80091E80017C0CAA8FB063440F8043BA9FBFE
:1008E8000615E8FB6741EAFB665140F8044BA9FB93
:1008F8000743ECFB661344CAE8FB6254EAFB67143F
:10090800ECFB673440F8045BA9FB0275EAFB62352F
:10091800ECFB6245E8FB6617E9FB6637EAFB6647CE
:10092800ECFB6657BAC0BDE8F00770472DE9F00345
:1009380091E8F801B2E802125B1854EB090455EB90
:100948000C05B2E802124E4157EB090758EB0C08A8
:1009580080E8F80180410130BDE8F003704700BF2E
:100968002DE9F00391E8F801B2E802125B1A74EB82
:10097800090475EB0C05B2E802128E4177EB090702
:1009880078EB0C0880E8F80180414042BDE8F003AC
:10099800704700BF2DE9F001524290E83800B1E8F5
:1009A800C00116409B1917407C4118EA020855EB14
:1009B800080538C090E8380091E8C0011640734136
:1009C80017407C4118EA020855EB080538C08041F9
:1009D8000130BDE8F00170472DE9F001524290E87E
:1009E8003800B1E8C00116409B1B1740BC4118EA0B
:1009F800020875EB080538C090E8380091E8C00196
:100A08001640B3411740BC4118EA020875EB0805C7
:100A180038C080414042BDE8F00170472DE9F0013F
:100A280052424FF0030890E8300091E8C000A31B41
:100A38001340E41AF618EB1B1340ED1AFF1830C0E8
:100A4800C0C1B8F10108EED1BDE8F001704700BFA0
:100A580092E8F0032DE9F003B1E8001E06C906B4D8
:100A6800A9FB04120891AAFB0403E9FB6520EBFB30
:100A780064300992AAFB0521ECFB6401E9FB6632AC
:100A8800EAFB6602EBFB66120A93A9FB0743EAFB43
:100A98006713EBFB6723EBFB6504ECFB6514EAFBD0
:100AA8006824EBFB6834A9FB0865DDF81C80E9FBCA
:100AB8006825EAFB6835EBFB6845BDE8000EE9FBF5
:100AC8006B16EAFB6B26ECFB6736E9FB6746EAFB2D
:100AD80067565DF804BBA9FB0B87EAFB6B37DDF8AB
:100AE80008B0ECFB6B47E9FB6B57EAFB6B675DF8FB
:100AF80004BBECFB6B28E9FB6B38EAFB6B4802B0E4
:100B08005DF804BBECFB6B58E9FB6B68EAFB6B78A0
:100B1800704700BF2DE9F14F83B0FFF799FFDDF86B
:100B28000C9009F10C0989E8FF010FBC83E8070064
:100B3800BDE8F08F91E8801FA7FB07120091A8FB82
:100B48000703E7FB6820E7FB69300192A7FB09214F
:100B5800E7FB6A01E8FB6832E7FB6A02E7FB6B1216
:100B68000293A8FB0943E7FB6B13E7FB6C23E8FB45
:100B78006904E8FB6A14E7FB6C24E8FB6C34A8FB07
:100B88000A65E8FB6B25E8FB6C35E9FB6C45E9FB7E
:100B98006916E8FB6B26E9FB6B36E9FB6C46EAFB5A
:100BA8006C56A9FB0A87E9FB6B37EAFB6B47EAFB44
:100BB8006C57EBFB6C67E9FB6A28EAFB6A38EAFBCF
:100BC8006B48EBFB6B58EBFB6C68ECFB6C78704785
:100BD8002DE9F14F83B0FFF7ADFFDDF80C9009F177
:100BE8000C0989E8FF010FBC83E80700BDE8F08F16
:100BF8002DE9F00391E8F803B2E802105B1854EB12
:100C08000C04B2E802104D4156EB0C0692E80610AF
:100C18004F4158EB020859EB0C0980E8F803804172
:100C28000130BDE8F00370472DE9F00391E8F803BF
:100C3800B2E802105B1A74EB0C04B2E802108D41A2
:100C480076EB0C0692E806108F4178EB020879EBF8
:100C58000C0980E8F80380414042BDE8F003704782
:100C68002DE9F003524290E83800B1E880031740BC
:100C7800DB1918EA020854EB080419EA020955EBD3
:100C8800090538C090E8780091E8820311404B418B
:100C980017407C4118EA020855EB080519EA0209D1
:100CA80056EB090678C080410130BDE8F003704773
:100CB8002DE9F003524290E83800B1E8800317406C
:100CC800DB1B18EA020874EB080419EA020975EB41
:100CD800090538C090E8780091E8820311408B41FB
:100CE8001740BC4118EA020875EB080519EA020921
:100CF80076EB090678C080414042BDE8F0037047B2
:100D08002DE9F00152424FF0030890E8300091E8D5
:100D1800C000A31B1340E41AF618EB1B1340ED1A8E
:100D2800FF1830C0C0C1B8F10108EED104680E68E0
:100D3800A31B1340E41AF61804600E60BDE8F00126
:100D4800704700BF00B592E8C40F2DE9C40FB1E8A1
:100D5800005E02B4A9FB02500995AAFB0234E9FB24
:100D68006603EBFB62430A90AAFB0605ECFB6235BF
:100D7800E9FB6740E9FB6830EEFB62500B94AAFB85
:100D88000721EAFB6851EBFB6801DDF81480EBFBF7
:100D98006632ECFB6652EAFB6802EBFB68120C93C6
:100DA800A9FB0843DDF81880E9FB6803EAFB681330
:100DB800EBFB6823EBFB6754EEFB6604DDF81C8055
:100DC800E9FB6814EAFB6824EBFB68340D955DF8D1
:100DD800049B99E8000CACFB0765DDF80C90ECFB74
:100DE8006915EEFB6925EAFB6935EBFB6945DDF81A
:100DF8000090EAFB6906EBFB6916DDF81090ECFB46
:100E08006926EEFB6936EAFB6946EBFB6956DDF8B5
:100E18000490AAFB0987EBFB6927DDF81490ECFB2B
:100E28006937EEFB6947EAFB6957EBFB6967DDF851
:100E38000890EEFB6918EAFB6928EBFB6938DDF8D6
:100E48001890ECFB6948EEFB6958EAFB6968EBFB14
:100E5800697807B000BD00BF2DE9F14F85B0FFF7F5
:100E680071FFDDF8149009F1140989E8FF013FBC0E
:100E780085E81F00BDE8F08F00B591E8805FA7FB0B
:100E880007500195A7FB0834E7FB6803E7FB6943B4
:100E98000290A7FB0905E7FB6A35E8FB6840E7FB1A
:100EA8006A30E7FB6B500394A8FB0921E7FB6B5101
:100EB800E7FB6C01E8FB6932E8FB6A52E7FB6C026E
:100EC800E7FB6E120493A8FB0A43E8FB6B03E7FBFE
:100ED8006E13E8FB6E23E9FB6954E8FB6B04E8FB3F
:100EE8006C14E8FB6E24E9FB6E340595A9FB0A65D2
:100EF800E8FB6C15E9FB6C25E9FB6E35EAFB6E45F2
:100F0800E9FB6A06E9FB6B16E9FB6C26EAFB6C3623
:100F1800EAFB6E46EBFB6E56A9FB0B87EAFB6B27D9
:100F2800EAFB6C37EBFB6C47EBFB6E57ECFB6E6731
:100F3800EAFB6A18EAFB6B28EBFB6B38EBFB6C48A7
:100F4800ECFB6C58ECFB6E68EEFB6E7800BD00BFE6
:100F58002DE9F14F85B0FFF78FFFDDF8149009F107
:100F6800140989E8FF013FBC85E81F00BDE8F08F40
:100F78002DE9F00791E8F807B2E802105B1854EB86
:100F88000C04B2E802104D4156EB0C06B2E8021010
:100F98004F4158EB0C08B2E8021059EB01095AEB23
:100FA8000C0A80E8F80780410130BDE8F007704777
:100FB8002DE9F00791E8F807B2E802105B1A74EB24
:100FC8000C04B2E802108D4176EB0C06B2E8021070
:100FD8008F4178EB0C08B2E8021079EB01097AEB43
:100FE8000C0A80E8F80780414042BDE8F0077047E6
:100FF8002DE9F007524290E87800B1E880071740E1
:10100800DB1918EA020854EB080419EA020955EB3F
:1010180009051AEA020A56EB0A0678C090E8780031
:10102800B1E8800717407B4118EA020854EB08042E
:1010380019EA020955EB09051AEA020A56EB0A06EB
:1010480078C080410130BDE8F00770472DE9F0070E
:10105800524290E87800B1E880071740DB1B18EA95
:10106800020874EB080419EA020975EB09051AEA83
:10107800020A76EB0A0678C090E87800B1E88007A3
:101088001740BB4118EA020874EB080419EA020980
:1010980075EB09051AEA020A76EB0A0678C0804160
:1010A8004042BDE8F00770472DE9F00152424FF089
:1010B800040890E8300091E8C000A31B1340E41A2C
:1010C800F618EB1B1340ED1AFF1830C0C0C1B8F179
:1010D8000108EED1BDE8F001704700BF00B592E805
:1010E800DC072DE9DC07B1E8805702B4A7FB025101
:1010F8000A95A8FB020BE7FB6310E9FB62B00B91B2
:10110800A8FB0351EAFB6201E7FB64B5E7FB660550
:10111800E8FB6615CDF830B0A9FB03B6EAFB631609
:10112800ECFB6356E8FB640BE9FB641BEAFB645BBE
:10113800ECFB646B0D90ACFB0230059CEEFB62503F
:10114800E9FB6460EAFB64B0E7FB6431E8FB6451E7
:10115800069CE8FB6461E9FB64B1EAFB64010E9359
:10116800A7FB0432079CE7FB6462E8FB64B2E9FB77
:101178006402EAFB6412049CE9FB6453EAFB6463BF
:10118800089CE7FB64B3E8FB6403E9FB6413EAFB30
:1011980064230F955DF8049B99E80006DDF800804C
:1011A800A9FB0854EAFB68B4DDF81080ECFB68047E
:1011B800EEFB6814E9FB6824EAFB6834DDF8048078
:1011C800EEFB6865E9FB68B5EAFB6805DDF81480A5
:1011D800ECFB6815EEFB6825E9FB6835EAFB68451A
:1011E8000F96DDF80880AEFB0876E9FB6806EAFB97
:1011F8006816DDF81880ECFB6826EEFB6836E9FB1C
:101208006846EAFB6856DDF80C80ECFB68B7EEFB35
:101218006807E9FB6817EAFB6827DDF81C80ECFB28
:101228006837EEFB6847E9FB6857EAFB686708B070
:1012380000BD00BF2DE9F14F87B0FFF74FFFDDF884
:101248001C8008F1200888E8FF00FFBC87E87F08B9
:10125800BDE8F08F00B591E89857A3FB03520195BC
:10126800A3FB0401E3FB6420E3FB67100292A3FBEA
:101278000752E3FB6802E4FB6415E3FB6805E3FB44
:1012880069250391A4FB07B6E3FB6926E3FB6A56CD
:10129800E4FB670BE4FB682BE3FB6A5BE3FB6C6B2B
:1012A8000490A4FB0810E4FB6950E3FB6C60E3FBCB
:1012B8006EB0E7FB6721E4FB6951E4FB6A61E3FB7D
:1012C8006EB1E4FB6E010592A7FB0832E4FB6A628B
:1012D800E4FB6CB2E4FB6E02E7FB6E12E7FB6853BB
:1012E800E7FB6963E4FB6CB3E7FB6C03E7FB6E1396
:1012F800E8FB6E230695A7FB0954E7FB6AB4E7FBF6
:101308006C04E8FB6C14E8FB6E24E9FB6E34E8FB24
:101318006865E7FB6AB5E8FB6A05E8FB6C15E9FB5D
:101328006C25E9FB6E35EAFB6E450796A8FB097646
:10133800E8FB6A06E9FB6A16E9FB6C26EAFB6C36F1
:10134800EAFB6E46ECFB6E56E8FB69B7E9FB6907FA
:10135800E9FB6A17EAFB6A27EAFB6C37ECFB6C4788
:10136800ECFB6E57EEFB6E6700BD00BF2DE9F14F39
:1013780087B0FFF76FFFDDF81C8008F1200888E8C8
:10138800FF00FFBC87E87F08BDE8F08F2DE9F00F6C
:10139800B1E8F801B2E8001E13EB090354EB0A04A4
:1013A80055EB0B0556EB0C06B2E8001E57EB090788
:1013B80058EB0A08A0E8F80191E8F80153EB0B0391
:1013C80054EB0C0492E8001E55EB090556EB0A068F
:1013D80057EB0B0758EB0C0880E8F8018041013007
:1013E800BDE8F00F704700BF2DE9F00FB1E8F80134
:1013F800B2E8001EB3EB090374EB0A0475EB0B05A6
:1014080076EB0C06B2E8001E77EB090778EB0A08C2
:10141800A0E8F80191E8F80173EB0B0374EB0C04F6
:1014280092E8001E75EB090576EB0A0677EB0B07C9
:1014380078EB0C0880E8F80180414042BDE8F00FE5
:10144800704700BF2DE9F007524290E87800B1E8F4
:1014580080071740DB1918EA020854EB080419EA58
:10146800020955EB09051AEA020A56EB0A0678C082
:1014780090E87800B1E8800717407B4118EA020835
:1014880054EB080419EA020955EB09051AEA020A9D
:1014980056EB0A0678C090E87800B1E88007174054
:1014A8007B4118EA020854EB080419EA020955EBD3
:1014B80009051AEA020A56EB0A0678C0804101308B
:1014C800BDE8F007704700BF2DE9F007524290E8E9
:1014D8007800B1E880071740DB1B18EA020874EBB4
:1014E800080419EA020975EB09051AEA020A76EBFB
:1014F8000A0678C090E87800B1E880071740BB4139
:1015080018EA020874EB080419EA020975EB0905E0
:101518001AEA020A76EB0A0678C090E87800B1E881
:1015280080071740BB4118EA020874EB080419EA5F
:10153800020975EB09051AEA020A76EB0A0678C071
:1015480080414042BDE8F007704700BF2DE9F00137
:1015580052424FF0060890E8300091E8C000A31B03
:101568001340E41AF618EB1B1340ED1AFF1830C0AD
:10157800C0C1B8F10108EED1BDE8F001704700BF65
:1015880003B5B2E8005E92E8FC012DE9FC012DE903
:10159800005E0FC9A0FB0967A1FB0958E0FB6A754B
:1015A800E2FB69850C9CC4E90067A1FB0A76E3FBB2
:1015B8006956E0FB6B87E1FB6B57E2FB6B67C4F88E
:1015C8000880A0FB0C98E1FB6C68E2FB6C78E2FBFE
:1015D8006A59E3FB6A69E1FB6E79E2FB6E89E560B3
:1015E800A0FB0EBADDF814E0E0FB6E7AE1FB6E8A30
:1015F800E2FB6E9A0D9CD4E90445DDF800E0E4FBBB
:101608006E6BE5FB6E7BE3FB6C8BE4FB6C9BE5FB95
:101618006CABDDF830E0CEF81060019EA4FB06EC60
:10162800E5FB668C049EE3FB669CE4FB66ACE5FB8D
:1016380066BC029EE3FB667EE4FB668EE5FB669E67
:10164800059EE3FB66AEE4FB66BEE5FB66CE0C9C3E
:1016580004F1140484E8805F06AD95E8E003A0FB7C
:1016680005CEA1FB05BAE0FB66EBE2FB65AB2DE915
:101678000050A1FB06ECE3FB65BCE0FB67AEE1FBB9
:1016880067BEE2FB67CEA0FB0854E1FB68C4E2FB3F
:1016980068E4E2FB66B5E3FB66C5E1FB69E5E2FBEE
:1016A8006945A0FB0976DDF83490E0FB69E6E1FBCB
:1016B8006946E2FB69560F9AD2E90412DDF82090D8
:1016C800E1FB69C7E2FB69E7E3FB6847E1FB6857B1
:1016D800E2FB68670998A1FB0098E2FB60480C9858
:1016E800E3FB6058E1FB6068E2FB60780A98E3FB83
:1016F80060E9E1FB6049E2FB60590D98E3FB606932
:10170800E1FB6079E2FB60890E9800F1300181E825
:10171800F0038769BDE800030D9800F118003FC881
:10172800009EE0FB6687E1FB6697E2FB66A7E3FBAA
:1017380066B7E4FB66C7E5FB66E70C9EC6F818804B
:10174800D6F81C80019EE0FB6698E1FB66A8E2FBE8
:1017580066B8E3FB66C8E4FB66E8E5FB66780C9EC2
:10176800C6F81C90D6F82090029EE0FB66A9E1FB23
:1017780066B9E2FB66C9E3FB66E9E4FB6679E5FB6B
:1017880066890C9EC6F820A0D6F824A0039EE0FB2C
:1017980066BAE1FB66CAE2FB66EAE3FB667AE4FB4B
:1017A800668AE5FB669A0C9EC6F824B0D6F828B07F
:1017B800049EE0FB66CBE1FB66EBE2FB667BE3FBAA
:1017C800668BE4FB669BE5FB66AB0C9EC6F828C0FF
:1017D800D6F82CC0059EE0FB66ECE1FB667CE2FBDC
:1017E800668CE3FB669CE4FB66ACE5FB66BC0C9E82
:1017F800C6F82CE0366BDDF818E0E0FB6E76E1FB0E
:101808006E86E2FB6E96E3FB6EA6E4FB6EB6E5FB26
:101818006EC6DDF830E0CEF83070DEF83470DDF8F2
:101828001CE0E0FB6E87E1FB6E97E2FB6EA7E3FB33
:101838006EB7E4FB6EC7E5FB6E67DDF830E0CEF807
:101848003480DEF83880DDF820E0E0FB6E98E1FBBC
:101858006EA8E2FB6EB8E3FB6EC8E4FB6E68E5FBBE
:101868006E78DDF830E0CEF83890DEF83C90DDF8A0
:1018780024E0E0FB6EA9E1FB6EB9E2FB6EC9E3FB75
:101888006E69E4FB6E79E5FB6E89DDF830E0CEF831
:101898003CA0DEF840A0DDF828E0E0FB6EBAE1FBF2
:1018A8006ECAE2FB6E6AE3FB6E7AE4FB6E8AE5FBC6
:1018B8006E9ADDF830E0CEF840B0DEF844B0DDF8DE
:1018C8002CE0E0FB6ECBE1FB6E6BE2FB6E7BE3FB97
:1018D8006E8BE4FB6E9BE5FB6EAB0C98C0F844C0C6
:1018E8000EB000BD2DE9F14FFFF74AFE5DF804CBBD
:1018F8000CF1480C8CE8C00FBDE8F08F01B591E8F9
:10190800FF0F2DE9FF0FA0FB0089A1FB00BAE0FB48
:10191800619BE2FB60AB0C9EE6E80289A1FB017CBF
:10192800E3FB60BCE0FB62A7E1FB62B7E2FB62C7D6
:10193800A0FB0398E1FB63C8E2FB6378E2FB61B9B3
:10194800E3FB61C9E1FB6479E2FB6489E6E802AB89
:10195800A0FB04BAE0FB657AE1FB658AE2FB659AC5
:10196800E4FB60CBE5FB607BE3FB638BE4FB639B01
:10197800E5FB63AB46F804CBA4FB01ECE5FB618C0B
:10198800E3FB649CE4FB64ACE5FB64BCE3FB627EC4
:10199800E4FB628EE5FB629EE3FB65AEE4FB65BE9D
:1019A800E5FB65CE86E8805F06AD95E8E003A0FB21
:1019B80005CEA1FB05BAE0FB66EBE2FB65AB2DE9C2
:1019C8000050A1FB06ECE3FB65BCE0FB67AEE1FB66
:1019D80067BEE2FB67CEA0FB0854E1FB68C4E2FBEC
:1019E80068E4E2FB66B5E3FB66C5E1FB69E5E2FB9B
:1019F8006945A0FB0976DDF83490E0FB69E6E1FB78
:101A08006946E2FB6956DDE906120898E1FB60C702
:101A1800E2FB60E7E3FB6847E1FB6857E2FB6867C6
:101A28000998A1FB0098E2FB60480C98E3FB60581A
:101A3800E1FB6068E2FB60780A98E3FB60E9E1FBA0
:101A48006049E2FB60590D98E3FB6069E1FB60794E
:101A5800E2FB60890E9800F1300181E8F0038769A4
:101A6800BDE8000306A83FC8009EE0FB6687E1FBCF
:101A78006697E2FB66A7E3FB66B7E4FB66C7E5FB90
:101A880066E70C9EC6F81880D6F81C80019EE0FB1D
:101A98006698E1FB66A8E2FB66B8E3FB66C8E4FB70
:101AA80066E8E5FB66780C9EC6F81C90D6F8209090
:101AB800029EE0FB66A9E1FB66B9E2FB66C9E3FBAF
:101AC80066E9E4FB6679E5FB66890C9EC6F820A00A
:101AD800D6F824A0039EE0FB66BAE1FB66CAE2FBE7
:101AE80066EAE3FB667AE4FB668AE5FB669A0C9E87
:101AF800C6F824B0D6F828B0049EE0FB66CBE1FB1C
:101B080066EBE2FB667BE3FB668BE4FB669BE5FB2F
:101B180066AB0C9EC6F828C0D6F82CC0059EE0FB24
:101B280066ECE1FB667CE2FB668CE3FB669CE4FB0F
:101B380066ACE5FB66BC0C9EC6F82CE0366BE0FB99
:101B48006076E1FB6086E2FB6096E3FB60A6E4FB5F
:101B580060B6E5FB60C6DDF830E0CEF83070DEF840
:101B68003470E0FB6187E1FB6197E2FB61A7E3FB6F
:101B780061B7E4FB61C7E5FB6167CEF83480DEF846
:101B88003880E0FB6298E1FB62A8E2FB62B8E3FB05
:101B980062C8E4FB6268E5FB6278CEF83890DEF84C
:101BA8003C90E0FB63A9E1FB63B9E2FB63C9E3FB9B
:101BB8006369E4FB6379E5FB6389CEF83CA0DEF852
:101BC80040A0E0FB64BAE1FB64CAE2FB646AE3FBA1
:101BD800647AE4FB648AE5FB649ACEF840B0DEF8E8
:101BE80044B0E0FB65CBE1FB656BE2FB657BE3FBA7
:101BF800658BE4FB659BE5FB65ABCEF844C00DB097
:101C080000BD00BF2DE9F14FFFF778FE5DF804CB6A
:101C18000CF1480C8CE8C00FBDE8F08F2DE9F04FAF
:101C2800B0E8FE0783B02DE9010790E8005F4FF0A8
:101C38000A0006900198DB199CEA030C18EB3C4853
:101C480097EA080713EB375393EA3C4C18EB3C68C8
:101C580098EA375724189EEA040E19EB3E4990EA91
:101C6800090014EB305494EA3E4E19EB3E6999EAA8
:101C78003050CDE90489DDE9028949199AEA010A57
:101C880018EB3A4895EA080511EB355191EA3A4ABA
:101C980018EB3A6898EA355592199BEA020B19EB4A
:101CA8003B4996EA090612EB365292EA3B4B19EB8E
:101CB8003B6999EA365613EB706393EA3B6B18EB72
:101CC8003B4898EA706013EB305393EA3B4B5FEA6A
:101CD8003B6B18EB0B0898EA30505FEA706014EB26
:101CE800756494EA3C6C19EB3C4999EA756514EB08
:101CF800355494EA3C4C5FEA3C6C19EB0C0999EAC0
:101D080035555FEA7565CDE90289DDE9048911EB8E
:101D1800766191EA3E6E18EB3E4898EA766611EBDA
:101D2800365191EA3E4E5FEA3E6E18EB0E0898EA8D
:101D380036565FEA766612EB776292EA3A6A19EBF0
:101D48003A4999EA776712EB375292EA3A4A5FEAD8
:101D58003A6A19EB0A0999EA37575FEA77670190F7
:101D6800069801387FF465AF01BC80E8005FBDE8E4
:101D7800000700E9FE0703B0BDE8F08F30B44FF06C
:101D8800000310F8014B11F8015B013A84EA0504DD
:101D980043EA0403F5D1A3F101034FEAD37030BC41
:101DA800704700BF4FF0000310F8012B013943EAD8
:101DB8000203F9D1A3F101034FEAD370704700BFC2
:101DC80030B411F8014B12F8015B6C4000F8014B7C
:101DD800013BF6D130BC70472DE9F00791E8F807D0
:101DE800B2E802105B1854EB0C04B2E802104D4143
:101DF80056EB0C06B2E802104F4158EB0C08B2E85B
:101E0800021059EB01095AEB0C0A4FF0260261EB5C
:101E1800010122EA01015B1854F1000455F10005A3
:101E280056F1000657F1000758F1000859F100096A
:101E38005AF1000A61EB010122EA01010B4480E832
:101E4800F807BDE8F00770472DE9F00791E8F807B3
:101E5800B2E802105B1A74EB0C04B2E802108D4170
:101E680076EB0C06B2E802108F4178EB0C08B2E86A
:101E7800021079EB01097AEB0C0A4FF0260261EBAC
:101E8800010102EA01015B1A74F1000475F1000511
:101E980076F1000677F1000778F1000879F100097A
:101EA8007AF1000A61EB010102EA0101A3EB0103E7
:101EB80080E8F807BDE8F007704700BF2DE9F14F4B
:101EC80087B0FFF70BF94FF0260CBDE800034FF081
:101ED800000AE0FB0C8AE1FB6C9A03BCE2FB6CA0F5
:101EE800E3FB6C010CBCE4FB6C12E5FB6C23BDE866
:101EF8001040E6FB6C34E7FB6CB40CFB04F418EB05
:101F0800040459F100055AF1000650F1000751F197
:101F1800000852F1000953F1000A5BF1000B60EB75
:101F280000002CEA000004448EE8F00FBDE8F08FB2
:101F38002DE9F14F87B0FFF78DF9C4E72DE9F003DC
:101F480091E8F8134FF4EE31BF390022E3FB612327
:101F5800E4FB6134E5FB6145E6FB6156E7FB61673D
:101F6800E8FB6178E9FB6189ECFB619C4FF0260195
:101F780001FB0CFC12EB0C0253F1000354F10004BA
:101F880055F1000556F1000657F1000758F1000811
:101F980059F100096CEB0C0C21EA0C010A4480E8A9
:101FA800FC03BDE8F00370472DE9F00390E8F8134F
:101FB8004FEAEC7202F013022CF0004C02F113010C
:101FC800591854F1000155F1000156F1000157F17B
:101FD800000158F1000159F100015CF100014FEADC
:101FE800E17101F0130111445B1854F1000455F13B
:101FF800000556F1000657F1000758F1000859F19D
:1020080000094CF1000C2CF0004C80E8F813BDE8F6
:10201800F00370472DE9F00391E8F803B2E80210E5
:102028005B1854EB0C04B2E802104D4156EB0C0659
:1020380092E806104F4158EB020859EB0C09894108
:10204800013B74F1000475F1000576F1FF3677F174
:10205800FF3778F1FF3879F1FF3951F1000113EBBF
:10206800D17354F1000455F100054E414F4158EB2E
:10207800010859EB010980E8F803BDE8F00370474F
:102088002DE9F00391E8F803B2E802105B1A74EB4B
:102098000C04B2E802108D4176EB0C0692E80610AB
:1020A8008F4178EB020879EB0C09894113EBD17366
:1020B80054F1000455F100054E414F4158EB010819
:1020C80059EB010980E8F803BDE8F003704700BF49
:1020D8002DE9F14F85B0FEF735FEDDE903ABBAEB2C
:1020E80005097BEB060AB84171EB080172F10002A1
:1020F80073F1000374F100046BEB0B0B4919724187
:102108007B4154EB08044BF10005BDE8C001BEEB70
:102118000E0E59EB02095AEB030A604169415EF160
:10212800000E96419F4178EB040879EB05097AF196
:10213800000A70F1000B71F1000C6EF1010E16EB44
:10214800DE7657F1000758F1000859EB0E095AEBF3
:102158000E0A5BEB0E0B5CEB0E0C02B001BC80E8C8
:10216800C01FBDE8F08F00BF2DE9F14F85B0FEF725
:1021780083FEB2E72DE9F00791E8F807B2E802100C
:102188005B1854EB0C04B2E802104D4156EB0C06F8
:10219800B2E802104F4158EB0C08B2E8021059EBB4
:1021A80001095AEB0C0A8941B3F1FF3374F1FF348A
:1021B80075F1FF3576F1000677F1000778F1000830
:1021C80079F101097AF1FF3A51F100015B184C41AC
:1021D8004D4156F1000657F1000758F1000859EB38
:1021E800D1795AEB010A80E8F807BDE8F007704793
:1021F8002DE9F00791E8F807B2E802105B1A74EBD2
:102208000C04B2E802108D4176EB0C06B2E802101D
:102218008F4178EB0C08B2E8021079EB01097AEBF0
:102228000C0A89415B184C414D4156F1000657F1A3
:10223800000758F1000859EBD1795AEB010A80E8F8
:10224800F807BDE8F007704718EB040859EB0509D3
:102258005AEB060A5BEB070B5FF0000C4CF1000C25
:1022680018EB050859EB06095AEB070A5BEB070B55
:1022780050EB0C005FF0000C51EB0C0152EB0C0220
:1022880063414CF1000CB8EB070879F100097AF1C9
:10229800000A7BEB040BA841B141A241B3416CF1A8
:1022A800000CBBEB050BB041B941AA41BB416CF135
:1022B800000C4CF001068CF0020718EB060859EBED
:1022C8006C095AEB6C0A7BEB6C0B70EB6C0471EBD2
:1022D8006C0572EB670653EB6C076CEB6C0C18EB38
:1022E8000C0059EB0C015AEB0C025BF1000354F1A2
:1022F800000455F1000556EBDC7657EB0C077047E8
:102308002DE9F14F87B0FEF7E9FEDDF81080DDF822
:102318001490DDF818A0FFF797FFBDE8000FFFF74E
:1023280093FF03B05DF8048B88E8FF00BDE8F08FE9
:102338002DE9F14F87B0FEF78DFFDDF81080DDF84D
:102348001490DDF818A0FFF77FFFBDE8000FFFF736
:102358007BFF03B05DF8048B88E8FF00BDE8F08FD1
:102368002DE9F04FB1E8C003B2E83804F618674128
:1023780058EB050859EB0A092DE9C003B1E8C00379
:10238800B2E838045E41674158EB050859EB0A0981
:1023980091E8005C3CCA5AEB020A5BEB030B5CEB6E
:1023A800040C5EEB050E89413CBCB2F1FF3273F1BF
:1023B800000374F1000475F1FF3556F1010677F159
:1023C800FF3778F1FF3879F1FF397AF1FF3A7BF17D
:1023D800FF3B7CF1FF3C7EF1FF3E51F100015218BA
:1023E80053F1000354F100044D4156EB41064F41AF
:1023F80058EB010859EB01095AEB010A5BEB010B99
:102408005CEB010C5EEB010E80E8FC5FBDE8F08F31
:102418002DE9F04FB1E8C003B2E83804F61AA74135
:1024280078EB050879EB0A092DE9C003B1E8C00388
:10243800B2E838049E41A74178EB050879EB0A0910
:1024480091E8005C3CCA7AEB020A7BEB030B7CEB5D
:10245800040C7EEB050E89413CBC521853F1000375
:1024680054F100044D4156EB41064F4158EB010829
:1024780059EB01095AEB010A5BEB010B5CEB010C10
:102488005EEB010E80E8FC5FBDE8F08F80197941B2
:1024980052EB080253EB090354EB0A0455EB0B0506
:1024A8004CF1000C9B197C4155EB08054CF1000CD4
:1024B800A4197D414CF1000C891BBA4173EB080348
:1024C80074EB090475EB0A056CF1000CDDE90C6787
:1024D80016EB0C064FEAEC7C57EB0C074CF1000CA2
:1024E80016EB080657EB09074CF1000C16EB09062A
:1024F80057EB0A074CF1000CB6EB0B06DDF8188019
:1025080077EB08076CF1000CDDE90E8918EB0C0875
:102518004FEAEC7C59EB0C094CF1000C18EB0A085B
:1025280059EB0B09DDF818A04CEB0A0C18EB0B085B
:1025380059EB0A094CF1000CDDE910AB1AEB0C0A57
:102548005BF1000B704700BF2DE9F14F98B068466A
:10255800FFF716F806A83FC84FF0000CCDF818C0D2
:102568004FF0010CFFF792FF0DF1300C8CE83F00A3
:102578004FF0000C4CF1000C9DE83F00CDF818C05E
:10258800FFF784FF6CEB0C0C10EB0C0051F1000111
:1025980052F1000253EB0C0354EB4C0455EB0C05C1
:1025A80056EB0C0657EB0C0758EB0C0859EB0C09CB
:1025B8005AEB0C0A5BEB0C0B18B05DF804CB8CE8FB
:1025C800FF0FBDE8F08F00BF2DE9F14F98B06846C6
:1025D800FFF794F9BEE700BF2DE9F14FF8C892E87C
:1025E800005E19EB03095AEB040A5BEB050B5CEB85
:1025F800060C4EEB070E91E8E001A9FB0502AAFBC9
:102608000543E9FB6624EAFB6634A9FB0765E9FB99
:102618006845B1E80003EBFB6836ECFB6846EEFB67
:102628006856ABFB0987ECFB6957EEFB696791E8D5
:102638000202EAFB6148EBFB6158ECFB6168EEFBC8
:1026480061784FF00001EAFB0951EBFB6961ECFB93
:102658006971EEFB69814FF4A03C4FEA154949EADC
:1026680006495FF0000AE9FB0C0A4FEA164646EAFB
:102678000746E6FB6C2A4FEA174747EA0847E7FB95
:102688006C3A4FEA184848EA0148E8FB6C4AADB290
:102698005544AF0805F0030507EB8707C01952F149
:1026A800000153F1000254F1000345F1000420BC7D
:1026B8001FC5BDE8F08F00BF30B490E83C10511D35
:1026C80053F1000154F1000155F100014CF10001F2
:1026D8004FEA9101494201F00501521853F10003F4
:1026E80054F1000455F100054CF1000C0CF0030CFA
:1026F80080E83C1030BC70472DE9F04F90E8F00FAF
:1027080000F140004FF0040E59E0F0B4826BC36B47
:1027180004680525242687593C444FEA724787EA0E
:10272800F24787EA92273C4442684FEAF21787EA61
:10273800B24787EAD2073C4440F8044B032D08BF50
:102748006FF01B0687593A444FEA734787EAF34705
:1027580087EA93273A4443684FEAF31787EAB3476F
:1027680087EAD3073A4440F8042B87593B444FEA99
:10277800744787EAF44787EA94273B4444684FEA5A
:10278800F41787EAB44787EAD4073B4440F8043B88
:10279800013DC0D1A0F13C00076A3C444FEA7247B2
:1027A80087EAF24787EA92273C4402684FEAF21721
:1027B80087EAB24787EAD2073C44C463F0BC4FF0CB
:1027C800020288EA781C8CEAF84C0BEBBC1C8AEAFB
:1027D800090303EA080383EA0A039C4450F8043B0C
:1027E8009C4451F8043B9C44674444EA050B0BEABB
:1027F800060B04EA05034BEA030BE34484EAF423DB
:1028080083EA34530BEBB30B87EA771C8CEAF74C5B
:102818000AEBBC1C89EA080303EA070383EA0903F5
:102828009C4450F8043B9C4451F8043B9C44664447
:102838004BEA040A0AEA050A0BEA04034AEA030A0D
:10284800E2448BEAFB2383EA3B530AEBB30A86EAAA
:10285800761C8CEAF64C09EBBC1C88EA070303EAF1
:10286800060383EA08039C4450F8043B9C4451F84F
:10287800043B9C4465444AEA0B0909EA04090AEA4C
:102888000B0349EA0309E1448AEAFA2383EA3A5343
:1028980009EBB30985EA751C8CEAF54C08EBBC1CFE
:1028A80087EA060303EA050383EA07039C4450F812
:1028B800043B9C4451F8043B9C44644449EA0A089C
:1028C80008EA0B0809EA0A0348EA0308E04489EA27
:1028D800F92383EA395308EBB30884EA741C8CEAB9
:1028E800F44C07EBBC1C86EA050303EA040383EAFD
:1028F80006039C4450F8043B9C4451F8043B9C4418
:10290800E34448EA090707EA0A0708EA090347EA25
:102918000307674488EAF82383EA385307EBB307C9
:102928008BEA7B1C8CEAFB4C06EBBC1C85EA040397
:1029380003EA0B0383EA05039C4450F8043B9C44D8
:1029480051F8043B9C44E24447EA080606EA0906B3
:1029580007EA080346EA0306664487EAF72383EA98
:10296800375306EBB3068AEA7A1C8CEAFA4C05EB75
:10297800BC1C84EA0B0303EA0A0383EA04039C44AD
:1029880050F8043B9C4451F8043B9C44E14446EA1B
:10299800070505EA080506EA070345EA030565444D
:1029A80086EAF62383EA365305EBB30589EA791CF0
:1029B8008CEAF94C04EBBC1C8BEA0A0303EA090312
:1029C80083EA0B039C4450F8043B9C4451F8043BB5
:1029D8009C44E04445EA060404EA070405EA0603C1
:1029E80044EA0304644485EAF52383EA355304EB97
:1029F800B304013A7FF4E5AEA0F14000BEF1010E48
:102A08007FF483AEA0F1400C9CE80F00001949192F
:102A18009219DB19ACE80F009CE80F0040444944C8
:102A280052445B44ACE80F00BDE8F08F2DE900503C
:102A3800ACF1400288B0C3CACDE90001B2E8030393
:102A4800CDE90201B2E8300CCDE90445B2E8035003
:102A5800CDE9060184EAD46080EA451085EAD561AB
:102A680081EA441180EA141080EA057081EA1511A0
:102A780081EA04711CEB903C4EEB913E1CEB814CBF
:102A88004EEB804EDDE9062382EA0A0083EA0B0159
:102A980020402940504059401CEB000C5EEB010ED1
:102AA8000A980899D0E900451CEB040C5EEB050E6A
:102AB800D1E900451CEB040C5EEB050E18EB0C0885
:102AC80059EB0E09D0E9024512196B41D1E90245CB
:102AD80012196B41DDE904458AEA04008BEA050115
:102AE80010EA080011EA090190EA0A0091EA0B01CC
:102AF80012184B4188EAD86080EA491089EAD961FE
:102B080081EA481180EA181080EA097081EA1911EF
:102B180081EA087112EB903243EB913312EB814258
:102B280043EB8043CDE90623DDE90023DDE90245D7
:102B380082EAD22080EA435083EAD32181EA4251D3
:102B480080EA921080EA836081EA931181EA8261C7
:102B58001CEB107C4EEB117E1CEB011C4EEB001E97
:102B680082EA0601324001EA040050401CEB000CE6
:102B780001EA0C00504083EA07023B4012EA0501D3
:102B880059405EEB010E02EA0E015940DDE90623C9
:102B9800A4185D41CDE9024512184B418CEADC20AE
:102BA80080EA4E508EEADE2181EA4C5180EA9C1080
:102BB80080EA8E6081EA9E1181EA8C6112EB1072C4
:102BC80043EB117312EB011243EB0013CDE906231B
:102BD80084EAD46080EA451085EAD56181EA441127
:102BE80080EA141080EA057081EA151181EA0471FF
:102BF8001AEB903A4BEB913B1AEB814A4BEB804B2B
:102C0800DDE9042382EA080083EA0901204029401B
:102C1800504059401AEB000A5BEB010B0A980899DF
:102C2800D0E904451AEB040A5BEB050BD1E904452E
:102C38001AEB040A5BEB050B16EB0A0657EB0B07BE
:102C4800D0E9064512196B41D1E9064512196B41C5
:102C5800DDE9024588EA040089EA05013040394087
:102C680090EA080091EA090112184B4186EAD660F9
:102C780080EA471087EAD76181EA461180EA161090
:102C880080EA077081EA171181EA067112EB903227
:102C980043EB913312EB814243EB8043CDE90423AC
:102CA800DDE90623DDE9004582EAD22080EA4350C7
:102CB80083EAD32181EA425180EA921080EA836054
:102CC80081EA931181EA82611AEB107A4BEB117B4E
:102CD8001AEB011A4BEB001B82EA0C0112EA0C02F8
:102CE80001EA040050401AEB000A01EA0A005040C9
:102CF80083EA0E0213EA0E0312EA050159405BEB60
:102D0800010B02EA0B015940DDE90423A4185D41D7
:102D1800CDE9004512184B418AEADA2080EA4B5087
:102D28008BEADB2181EA4A5180EA9A1080EA8B60BB
:102D380081EA9B1181EA8A6112EB107243EB1173ED
:102D480012EB011243EB0013CDE9042384EAD460AB
:102D580080EA451085EAD56181EA441180EA1410B9
:102D680080EA057081EA151181EA047118EB903840
:102D780049EB913918EB814849EB8049DDE9022399
:102D880082EA060083EA0701204029405040594062
:102D980018EB000859EB01090A980899D0E9084589
:102DA80018EB040859EB0509D1E9084518EB0408A4
:102DB80059EB05091CEB080C5EEB090ED0E90A4536
:102DC80012196B41D1E90A4512196B41DDE9004539
:102DD80086EA040087EA050110EA0C0011EA0E01F0
:102DE8007040794012184B418CEADC6080EA4E1042
:102DF8008EEADE6181EA4C1180EA1C1080EA0E70CE
:102E080081EA1E1181EA0C7112EB903243EB913387
:102E180012EB814243EB8043CDE90223DDE9042331
:102E2800DDE9064582EAD22080EA435083EAD321CD
:102E380081EA425180EA921080EA836081EA931124
:102E480081EA826118EB107849EB117918EB0118C7
:102E580049EB001982EA0A0112EA0A0201EA0400AF
:102E6800504018EB000801EA0800504083EA0B02C2
:102E780013EA0B0312EA0501594059EB010902EA6A
:102E880009015940DDE90223A4185D41CDE9064551
:102E980012184B4188EAD82080EA495089EAD9219A
:102EA80081EA485180EA981080EA896081EA99119C
:102EB80081EA886112EB107243EB117312EB011275
:102EC80043EB0013CDE9022384EAD46080EA45107D
:102ED80085EAD56181EA441180EA141080EA057018
:102EE80081EA151181EA047116EB903647EB9137A8
:102EF80016EB814647EB8047DDE9002382EA0C00A8
:102F080083EA0E01204029405040594036184F416D
:102F18000A980899D0E90C4536196F41D1E90C4552
:102F280036196F411AEB060A5BEB070BD0E90E4521
:102F380012196B41D1E90E4512196B41DDE90645BD
:102F48008CEA04008EEA050110EA0A0011EA0B0176
:102F580090EA0C0091EA0E0112184B418AEADA60F5
:102F680080EA4B108BEADB6181EA4A1180EA1A1089
:102F780080EA0B7081EA1B1181EA0A7112EB903228
:102F880043EB913312EB814243EB8043CDE90023BD
:102F9800DDE90223DDE9044582EAD22080EA4350D4
:102FA80083EAD32181EA425180EA921080EA836061
:102FB80081EA931181EA826116EB107647EB11776B
:102FC80016EB011647EB001782EA080112EA08021D
:102FD80001EA04005040361801EA0600504083EA2E
:102FE800090213EA090312EA050159404F4102EAAE
:102FF80007015940DDE90023A4185D41CDE90445E6
:1030080012184B4186EAD62080EA475087EAD72132
:1030180081EA465180EA961080EA876081EA971132
:1030280081EA866112EB107243EB117312EB011205
:1030380043EB0013CDE9002384EAD46080EA45100D
:1030480085EAD56181EA441180EA141080EA0570A6
:1030580081EA151181EA04711CEB903C4EEB913E1C
:103068001CEB814C4EEB804EDDE9062382EA0A0018
:1030780083EA0B0120402940504059401CEB000CCA
:103088005EEB010E0A980899D0E910451CEB040C78
:103098005EEB050ED1E910451CEB040C5EEB050E4A
:1030A80018EB0C0859EB0E09D0E9124512196B41BF
:1030B800D1E9124512196B41DDE904458AEA040099
:1030C8008BEA050110EA080011EA090190EA0A00F2
:1030D80091EA0B0112184B4188EAD86080EA49103E
:1030E80089EAD96181EA481180EA181080EA0970F2
:1030F80081EA191181EA087112EB903243EB91339E
:1031080012EB814243EB8043CDE90623DDE900233E
:10311800DDE9024582EAD22080EA435083EAD321DE
:1031280081EA425180EA921080EA836081EA931131
:1031380081EA82611CEB107C4EEB117E1CEB011CBA
:103148004EEB001E82EA0601324001EA04005040BC
:103158001CEB000C01EA0C00504083EA07023B40DC
:1031680012EA050159405EEB010E02EA0E015940D0
:10317800DDE90623A4185D41CDE9024512184B414B
:103188008CEADC2080EA4E508EEADE2181EA4C513E
:1031980080EA9C1080EA8E6081EA9E1181EA8C6147
:1031A80012EB107243EB117312EB011243EB001395
:1031B800CDE9062384EAD46080EA451085EAD56122
:1031C80081EA441180EA141080EA057081EA151139
:1031D80081EA04711AEB903A4BEB913B1AEB814A66
:1031E8004BEB804BDDE9042382EA080083EA0901FE
:1031F80020402940504059401AEB000A5BEB010B74
:103208000A980899D0E914451AEB040A5BEB050BF8
:10321800D1E914451AEB040A5BEB050B16EB0A0619
:1032280057EB0B07D0E9164512196B41D1E9164542
:1032380012196B41DDE9024588EA040089EA0501B3
:103248003040394090EA080091EA090112184B41D0
:1032580086EAD66080EA471087EAD76181EA461194
:1032680080EA161080EA077081EA171181EA067170
:1032780012EB903243EB913312EB814243EB8043E4
:10328800CDE90423DDE90623DDE9004582EAD22001
:1032980080EA435083EAD32181EA425180EA9210BE
:1032A80080EA836081EA931181EA82611AEB107ADD
:1032B8004BEB117B1AEB011A4BEB001B82EA0C015A
:1032C80012EA0C0201EA040050401AEB000A01EA73
:1032D8000A00504083EA0E0213EA0E0312EA0501BF
:1032E80059405BEB010B02EA0B015940DDE904236D
:1032F800A4185D41CDE9004512184B418AEADA204D
:1033080080EA4B508BEADB2181EA4A5180EA9A1025
:1033180080EA8B6081EA9B1181EA8A6112EB107264
:1033280043EB117312EB011243EB0013CDE90423B5
:1033380084EAD46080EA451085EAD56181EA4411BF
:1033480080EA141080EA057081EA151181EA047197
:1033580018EB903849EB913918EB814849EB8049D3
:10336800DDE9022382EA060083EA070120402940BA
:103378005040594018EB000859EB01090A98089980
:10338800D0E9184518EB040859EB0509D1E91845A7
:1033980018EB040859EB05091CEB080C5EEB090E49
:1033A800D0E91A4512196B41D1E91A4512196B4136
:1033B800DDE9004586EA040087EA050110EA0C0009
:1033C80011EA0E017040794012184B418CEADC601A
:1033D80080EA4E108EEADE6181EA4C1180EA1C1008
:1033E80080EA0E7081EA1E1181EA0C7112EB9032AC
:1033F80043EB913312EB814243EB8043CDE9022347
:10340800DDE90423DDE9064582EAD22080EA43505B
:1034180083EAD32181EA425180EA921080EA8360EC
:1034280081EA931181EA826118EB107849EB1179EE
:1034380018EB011849EB001982EA0A0112EA0A029C
:1034480001EA0400504018EB000801EA0800504067
:1034580083EA0B0213EA0B0312EA0501594059EB00
:10346800010902EA09015940DDE90223A4185D4176
:10347800CDE9064512184B4188EAD82080EA495020
:1034880089EAD92181EA485180EA981080EA89605E
:1034980081EA991181EA886112EB107243EB11738A
:1034A80012EB011243EB0013CDE9022384EAD46046
:1034B80080EA451085EAD56181EA441180EA141052
:1034C80080EA057081EA151181EA047116EB9036DD
:1034D80047EB913716EB814647EB8047DDE9002340
:1034E80082EA0C0083EA0E012040294050405940EE
:1034F80036184F410A980899D0E91C4536196F418A
:10350800D1E91C4536196F411AEB060A5BEB070B2C
:10351800D0E91E4512196B41D1E91E4512196B41BC
:10352800DDE906458CEA04008EEA050110EA0A0086
:1035380011EA0B0190EA0C0091EA0E0112184B41B6
:103548008AEADA6080EA4B108BEADB6181EA4A1189
:1035580080EA1A1080EA0B7081EA1B1181EA0A716D
:1035680012EB903243EB913312EB814243EB8043F1
:10357800CDE90023DDE90223DDE9044582EAD22012
:1035880080EA435083EAD32181EA425180EA9210CB
:1035980080EA836081EA931181EA826116EB1076F2
:1035A80047EB117716EB011647EB001782EA080183
:1035B80012EA080201EA04005040361801EA06003F
:1035C800504083EA090213EA090312EA0501594047
:1035D8004F4102EA07015940DDE90023A4185D4183
:1035E800CDE9044512184B4186EAD62080EA4750B7
:1035F80087EAD72181EA465180EA961080EA8760F7
:1036080081EA971181EA866112EB107243EB11731C
:1036180012EB011243EB0013CDE900230A98803026
:103628000A90089AA2F140021BBCC3C2A2E8180380
:103638001BBCA2E8030CA2E81850BDE8009000BF2C
:1036480000B59CE8F00FDCE91201DCE91C23241822
:1036580045EB01054FEA560E8EEAC77E8EEA162E16
:103668008EEA076E8EEAD61E8EEA476E14EB0E04BB
:103678004FEA570E8EEAC67E8EEA172E8EEA066E3F
:103688008EEAD71E45EB0E054FEAD24E8EEA433E30
:103698008EEAC20E8EEA537E8EEA921E8EEA836E00
:1036A80014EB0E044FEAD34E8EEA423E8EEAC30E66
:1036B8008EEA527E8EEA931E45EB0E05DCE9140174
:1036C800DCE91E23361847EB01074FEA580E8EEA4D
:1036D800C97E8EEA182E8EEA096E8EEAD81E8EEA08
:1036E800496E16EB0E064FEA590E8EEAC87E8EEA30
:1036F800192E8EEA086E8EEAD91E47EB0E074FEA9E
:10370800D24E8EEA433E8EEAC20E8EEA537E8EEA8F
:10371800921E8EEA836E16EB0E064FEAD34E8EEAA1
:10372800423E8EEAC30E8EEA527E8EEA931E47EB25
:103738000E07DCE9160118EB000849EB01094FEA0E
:103748005A0E8EEACB7E8EEA1A2E8EEA0B6E8EEA1F
:10375800DA1E8EEA4B6E18EB0E084FEA5B0E8EEA05
:10376800CA7E8EEA1B2E8EEA0A6E8EEADB1E49EBB3
:103778000E094FEAD44E8EEA453E8EEAC40E8EEA12
:10378800557E8EEA941E8EEA856E18EB0E084FEA77
:10379800D54E8EEA443E8EEAC50E8EEA547E8EEAF7
:1037A800951E49EB0E09DCE91801DCE908231AEB40
:1037B800000A4BEB010B4FEA520E8EEAC37E8EEAEB
:1037C800122E8EEA036E8EEAD21E8EEA436E1AEB32
:1037D8000E0A4FEA530E8EEAC27E8EEA132E8EEA46
:1037E800026E8EEAD31E4BEB0E0B4FEAD64E8EEAD4
:1037F800473E8EEAC60E8EEA577E8EEA961E8EEAFF
:10380800876E1AEB0E0A4FEAD74E8EEA463E8EEACC
:10381800C70E8EEA567E8EEA971E4BEB0E0BACE86F
:10382800F00FDCE91201DCE90267121843EB01032F
:103838004FEA560E8EEAC77E8EEA162E8EEA076E7D
:103848008EEAD61E8EEA476E12EB0E024FEA570E2C
:103858008EEAC67E8EEA172E8EEA066E8EEAD71E8E
:1038680043EB0E034FEAD84E8EEA493E8EEAC80E65
:103878008EEA597E8EEA981E8EEA896E12EB0E0247
:103888004FEAD94E8EEA483E8EEAC90E8EEA587E35
:103898008EEA991E43EB0E03DCE91401DCE9048986
:1038A800361847EB01074FEA580E8EEAC97E8EEAB2
:1038B800182E8EEA096E8EEAD81E8EEA496E16EB2D
:1038C8000E064FEA590E8EEAC87E8EEA192E8EEA47
:1038D800086E8EEAD91E47EB0E074FEADA4E8EEADB
:1038E8004B3E8EEACA0E8EEA5B7E8EEA9A1E8EEAFE
:1038F8008B6E16EB0E064FEADB4E8EEA4A3E8EEAD8
:10390800CB0E8EEA5A7E8EEA9B1E47EB0E07DCE949
:103918001601DCE906AB18EB000849EB01094FEA90
:103928005A0E8EEACB7E8EEA1A2E8EEA0B6E8EEA3D
:10393800DA1E8EEA4B6E18EB0E084FEA5B0E8EEA23
:10394800CA7E8EEA1B2E8EEA0A6E8EEADB1E49EBD1
:103958000E094FEAD24E8EEA433E8EEAC20E8EEA36
:10396800537E8EEA921E8EEA836E18EB0E084FEA9B
:10397800D34E8EEA423E8EEAC30E8EEA527E8EEA1D
:10398800931E49EB0E09DCE908011AEB040A4BEB1C
:10399800050B4FEA500E8EEAC17E8EEA102E8EEA93
:1039A800016E8EEAD01E8EEA416E1AEB0E0A4FEABD
:1039B800510E8EEAC07E8EEA112E8EEA006E8EEAD5
:1039C800D11E4BEB0E0B4FEAD64E8EEA473E8EEADF
:1039D800C60E8EEA577E8EEA961E8EEA876E1AEB20
:1039E8000E0A4FEAD74E8EEA463E8EEAC70E8EEA98
:1039F800567E8EEA971E4BEB0E0BACE8CC0F5CE9BB
:103A08000E45DCE90267001941EB05014FEA560E45
:103A18008EEAC77E8EEA162E8EEA076E8EEAD61ECC
:103A28008EEA476E10EB0E004FEA570E8EEAC67EFE
:103A38008EEA172E8EEA066E8EEAD71E41EB0E012D
:103A48004FEAD84E8EEA493E8EEAC80E8EEA597E73
:103A58008EEA981E8EEA896E10EB0E004FEAD94E58
:103A68008EEA483E8EEAC90E8EEA587E8EEA991E84
:103A780041EB0E015CE90C45DCE90489361947EB9A
:103A880005074FEA580E8EEAC97E8EEA182E8EEA8E
:103A9800096E8EEAD81E8EEA496E16EB0E064FEABC
:103AA800590E8EEAC87E8EEA192E8EEA086E8EEAC4
:103AB800D91E47EB0E074FEADA4E8EEA4B3E8EEAE6
:103AC800CA0E8EEA5B7E8EEA9A1E8EEA8B6E16EB23
:103AD8000E064FEADB4E8EEA4A3E8EEACB0E8EEA9F
:103AE8005A7E8EEA9B1E47EB0E075CE90A45DCE925
:103AF80006AB18EB040849EB05094FEA5A0E8EEAA3
:103B0800CB7E8EEA1A2E8EEA0B6E8EEADA1E8EEACB
:103B18004B6E18EB0E084FEA5B0E8EEACA7E8EEAF1
:103B28001B2E8EEA0A6E8EEADB1E49EB0E094FEA5F
:103B3800D04E8EEA413E8EEAC00E8EEA517E8EEA63
:103B4800901E8EEA816E18EB0E084FEAD14E8EEA6F
:103B5800403E8EEAC10E8EEA507E8EEA911E49EBF7
:103B68000E09DCE908451AEB020A4BEB030B4FEA96
:103B7800540E8EEAC57E8EEA142E8EEA056E8EEA03
:103B8800D41E8EEA456E1AEB0E0A4FEA550E8EEADF
:103B9800C47E8EEA152E8EEA046E8EEAD51E4BEB95
:103BA8000E0B4FEAD64E8EEA473E8EEAC60E8EEAD6
:103BB800577E8EEA961E8EEA876E1AEB0E0A4FEA39
:103BC800D74E8EEA463E8EEAC70E8EEA567E8EEABB
:103BD800971E4BEB0E0BACE8C30F5CE90E23DCE938
:103BE8000267A41845EB03054FEA560E8EEAC77E16
:103BF8008EEA162E8EEA076E8EEAD61E8EEA476E7B
:103C080014EB0E044FEA570E8EEAC67E8EEA172E84
:103C18008EEA066E8EEAD71E45EB0E054FEAD84EA1
:103C28008EEA493E8EEAC80E8EEA597E8EEA981EC2
:103C38008EEA896E14EB0E044FEAD94E8EEA483E9E
:103C48008EEAC90E8EEA587E8EEA991E45EB0E055D
:103C58005CE90C23DCE90489B61847EB03074FEA53
:103C6800580E8EEAC97E8EEA182E8EEA096E8EEA02
:103C7800D81E8EEA496E16EB0E064FEA590E8EEAEA
:103C8800C87E8EEA192E8EEA086E8EEAD91E47EB98
:103C98000E074FEADA4E8EEA4B3E8EEACA0E8EEADD
:103CA8005B7E8EEA9A1E8EEA8B6E16EB0E064FEA44
:103CB800DB4E8EEA4A3E8EEACB0E8EEA5A7E8EEABA
:103CC8009B1E47EB0E075CE90A23DCE906AB18EB01
:103CD800020849EB03094FEA5A0E8EEACB7E8EEAB8
:103CE8001A2E8EEA0B6E8EEADA1E8EEA4B6E18EBEF
:103CF8000E084FEA5B0E8EEACA7E8EEA1B2E8EEA0B
:103D08000A6E8EEADB1E49EB0E094FEAD44E8EEAA4
:103D1800453E8EEAC40E8EEA557E8EEA941E8EEAE1
:103D2800856E18EB0E084FEAD54E8EEA443E8EEAB1
:103D3800C50E8EEA547E8EEA951E49EB0E095CE9A3
:103D480018231AEB000A4BEB010B4FEA520E8EEACE
:103D5800C37E8EEA122E8EEA036E8EEAD21E8EEA99
:103D6800436E1AEB0E0A4FEA530E8EEAC27E8EEAB3
:103D7800132E8EEA026E8EEAD31E4BEB0E0B4FEA21
:103D8800D64E8EEA473E8EEAC60E8EEA577E8EEAF9
:103D9800961E8EEA876E1AEB0E0A4FEAD74E8EEA07
:103DA800463E8EEAC70E8EEA567E8EEA971E4BEB8B
:103DB8000E0B8CE8F00FACF1600C00BD2DE9F24F52
:103DC80000F1400CB0E8F807ACE8F807B0E8F807ED
:103DD800ACE8F807FEF72AFEFFF732FCFEF726FEEE
:103DE800FFF72EFCFEF722FEFFF72AFCFEF71EFE69
:103DF800FFF726FCFEF71AFEACF1800808F140092F
:103E080098E80F0CB9E8F0500019694192197B4104
:103E18001AEB0C0A4BEB0E0BA8E80F0C98E80F0CEA
:103E2800B9E8F0500019694192197B411AEB0C0A64
:103E38004BEB0E0BA8E80F0C98E80F0099E8F00080
:103E48000019694192197B4188E80F00BDE8F88F95
:103E580081F0004102E000BF83F0004330B54FEA33
:103E680041044FEA430594EA050F08BF90EA020FA0
:103E78001FBF54EA000C55EA020C7FEA645C7FEA33
:103E8800655C00F0E2804FEA5454D4EB5555B8BF56
:103E98006D420CDD2C4480EA020281EA030382EAC7
:103EA800000083EA010180EA020281EA0303362D59
:103EB80088BF30BD11F0004F4FEA01314FF4801C2C
:103EC8004CEA113102D0404261EB410113F0004F3E
:103ED8004FEA03334CEA133302D0524263EB4303F5
:103EE80094EA050F00F0A780A4F10104D5F1200E93
:103EF8000DDB02FA0EFC22FA05F2801841F10001EE
:103F080003FA0EF2801843FA05F359410EE0A5F1C1
:103F180020050EF1200E012A03FA0EFC28BF4CF0F2
:103F2800020C43FA05F3C01851EBE37101F00045A8
:103F380007D54FF0000EDCF1000C7EEB00006EEBB5
:103F48000101B1F5801F1BD3B1F5001F0CD349083F
:103F58005FEA30004FEA3C0C04F101044FEA445296
:103F680012F5800F80F09A80BCF1004F08BF5FEA1D
:103F7800500C50F1000041EB045141EA050130BDFD
:103F88005FEA4C0C404141EB0101013C28BFB1F50F
:103F9800801FE9D291F0000F04BF01460020B1FA5A
:103FA80081F308BF2033A3F10B03B3F120020CDA2D
:103FB8000C3208DD02F1140CC2F10C0201FA0CF00B
:103FC80021FA02F10CE002F11402D8BFC2F1200C70
:103FD80001FA02F120FA0CFCDCBF41EA0C01904026
:103FE800E41AA2BF01EB0451294330BD6FEA04046F
:103FF8001F3C1CDA0C340EDC04F11404C4F120025A
:1040080020FA04F001FA02F340EA030021FA04F36B
:1040180045EA030130BDC4F10C04C4F1200220FAC2
:1040280002F001FA04F340EA0300294630BD21FA00
:1040380004F0294630BD94F0000F83F4801306BFC6
:1040480081F480110134013D4EE77FEA645C18BFBA
:104058007FEA655C29D094EA050F08BF90EA020F51
:1040680005D054EA000C04BF1946104630BD91EA49
:10407800030F1EBF0021002030BD5FEA545C05D14C
:104088004000494128BF41F0004130BD14F580048B
:104098003CBF01F5801130BD01F0004545F0FE41FF
:1040A80041F470014FF0000030BD7FEA645C1ABF34
:1040B800194610467FEA655C1CBF0B46024650EA6B
:1040C800013406BF52EA033591EA030F41F4002197
:1040D80030BD00BF90F0000F04BF0021704730B51D
:1040E8004FF4806404F132044FF000054FF00001F2
:1040F80050E700BF90F0000F04BF0021704730B5B3
:104108004FF4806404F1320410F0004548BF404287
:104118004FF000013EE700BF42004FEAE2014FEADC
:1041280031014FEA02701FBF12F07F4393F07F4FB7
:1041380081F06051704732F07F4208BF704793F0BA
:104148007F4F04BF41F40021704730B54FF46074CD
:1041580001F0004521F000411CE700BF50EA0102D0
:1041680008BF704730B54FF000050AE050EA010279
:1041780008BF704730B511F0004502D5404261EBE9
:1041880041014FF4806404F132045FEA915C3FF42A
:10419800D8AE4FF003025FEADC0C18BF03325FEAC7
:1041A800DC0C18BF033202EBDC02C2F1200300FA78
:1041B80003FC20FA02F001FA03FE40EA0E0021FA9D
:1041C80002F11444BDE600BF70B54FF0FF0C4CF48B
:1041D800E06C1CEA11541DBF1CEA135594EA0C0F3D
:1041E80095EA0C0F00F0DEF82C4481EA030621EA78
:1041F8004C5123EA4C5350EA013518BF52EA0335B3
:1042080041F4801143F4801338D0A0FB02CE4FF064
:104218000005E1FB02E506F00042E0FB03E54FF094
:104228000006E1FB03569CF0000F18BF4EF0010E8C
:10423800A4F1FF04B6F5007F64F5407404D25FEA88
:104248004E0E6D4146EB060642EAC62141EA55513B
:104258004FEAC52040EA5E504FEACE2EB4F1FD0C7D
:1042680088BFBCF5E06F1ED8BEF1004F08BF5FEAFB
:10427800500E50F1000041EB045170BD06F00046AD
:1042880046EA010140EA020081EA0301B4EB5C045A
:10429800C2BFD4EB0C0541EA045170BD41F4801152
:1042A8004FF0000E013C00F3AB8014F1360FDEBF77
:1042B800002001F0004170BDC4F10004203C35DA53
:1042C8000C341BDC04F11404C4F1200500FA05F3D6
:1042D80020FA04F001FA05F240EA020001F0004277
:1042E80021F0004110EBD37021FA04F642EB0601ED
:1042F8005EEA430E08BF20EAD37070BDC4F10C0417
:10430800C4F1200500FA04F320FA05F001FA04F2DA
:1043180040EA020001F0004110EBD37041F10001C6
:104328005EEA430E08BF20EAD37070BDC4F12005D1
:1043380000FA05F24EEA020E20FA04F301FA05F239
:1043480043EA020321FA04F001F0004121FA04F2E1
:1043580020EA020000EBD3705EEA430E08BF20EAB1
:10436800D37070BD94F0000F0FD101F000464000EB
:1043780041EB010111F4801F08BF013CF7D041EA6D
:10438800060195F0000F18BF704703F00046520071
:1043980043EB030313F4801F08BF013DF7D043EA42
:1043A8000603704794EA0C0F0CEA135518BF95EAF8
:1043B8000C0F0CD050EA410618BF52EA4306D1D17F
:1043C80081EA030101F000414FF0000070BD50EA9E
:1043D800410606BF1046194652EA430619D094EA28
:1043E8000C0F02D150EA013613D195EA0C0F05D112
:1043F80052EA03361CBF104619460AD181EA030166
:1044080001F0004141F0FE4141F470014FF000001D
:1044180070BD41F0FE4141F4780170BD70B54FF0B8
:10442800FF0C4CF4E06C1CEA11541DBF1CEA135538
:1044380094EA0C0F95EA0C0F00F0A7F8A4EB05041A
:1044480081EA030E52EA03354FEA013100F0888011
:104458004FEA03334FF0805545EA131343EA1263DA
:104468004FEA022245EA111545EA10654FEA00268F
:104478000EF000419D4208BF964244F1FD0404F548
:10448800407402D25B084FEA3202B61A65EB0305A4
:104498005B084FEA32024FF480104FF4002CB6EB61
:1044A800020E75EB030E22BFB61A754640EA0C00E1
:1044B8005B084FEA3202B6EB020E75EB030E22BF21
:1044C800B61A754640EA5C005B084FEA3202B6EB62
:1044D800020E75EB030E22BFB61A754640EA9C0021
:1044E8005B084FEA3202B6EB020E75EB030E22BFF1
:1044F800B61A754640EADC0055EA060E18D04FEAAF
:10450800051545EA16754FEA06164FEAC30343EA4E
:1045180052734FEAC2025FEA1C1CC0D111F4801F1B
:104528000BD141EA00014FF000004FF0004CB6E714
:1045380011F4801F04BF01430020B4F1FD0C88BFB3
:10454800BCF5E06F3FF6AFAEB5EB030C04BFB6EBBE
:10455800020C5FEA500C50F1000041EB045170BDB1
:104568000EF0004E4EEA113114EB5C04C2BFD4EBDE
:104578000C0541EA045170BD41F480114FF0000E62
:10458800013C90E645EA060E8DE60CEA135594EADE
:104598000C0F08BF95EA0C0F3FF43BAF94EA0C0FE1
:1045A8000AD150EA01347FF434AF95EA0C0F7FF456
:1045B80025AF104619462CE795EA0C0F06D152EAAA
:1045C80003353FF4FDAE1046194622E750EA41068E
:1045D80018BF52EA43067FF4C5AE50EA41047FF49F
:1045E8000DAF52EA43057FF4EBAE12E74FF0FF3C04
:1045F80006E000BF4FF0010C02E000BF4FF0010CD5
:104608004DF804CD4FEA410C7FEA6C5C4FEA430C4D
:1046180018BF7FEA6C5C1BD001B050EA410C0CBF9C
:1046280052EA430C91EA030F02BF90EA020F0020FE
:10463800704710F1000F91EA030F58BF994208BF65
:1046480090422CBFD8176FEAE37040F00100704722
:104658004FEA410C7FEA6C5C02D150EA013C07D179
:104668004FEA430C7FEA6C5CD6D152EA033CD3D0C4
:104678005DF8040B704700BF8446104662468C46BE
:104688001946634600E000BF01B5FFF7B7FF0028F1
:1046980048BF10F1000F01BD4DF808EDFFF7F4FF1A
:1046A8000CBF012000205DF808FB00BF4DF808EDA5
:1046B800FFF7EAFF34BF012000205DF808FB00BFC8
:1046C8004DF808EDFFF7E0FF94BF012000205DF8EA
:1046D80008FB00BF4DF808EDFFF7CEFF94BF01209F
:1046E80000205DF808FB00BF4DF808EDFFF7C4FF98
:1046F80034BF012000205DF808FB00BF4A0011D23A
:1047080012F5001211D20DD56FF47873B3EB625223
:104718000ED44FEAC12343F0004343EA505323FA2F
:1047280002F070474FF00000704750EA013002D1A4
:104738004FF0FF3070474FF0000070474FEA4102DA
:10474800B2F1E04324BFB3F5001CDCF1FE5C0DD9E7
:1047580001F0004C4FEAC0024CEA5070B2F1004F31
:1047680040EB830008BF20F00100704711F0804F34
:1047780021D113F13872BCBF01F00040704741F4F9
:1047880080114FEA5252C2F11802C2F1200C10FAFD
:104798000CF320FA02F018BF40F001004FEAC123E1
:1047A8004FEAD32303FA0CFC40EA0C0023FA02F385
:1047B8004FEA4303CCE77FEA625307D150EA01335B
:1047C8001EBF4FF0FE4040F44000704701F000402B
:1047D80040F0FE4040F40000704700BF7BB972B95A
:1047E8000029BEBF00204FF0004106E008BF0028A6
:1047F8001CBF6FF000414FF0FF3000F075B8ADF10D
:10480800080C6DE904CE002909DB002B1ADB00F047
:1048180087F8DDF804E0DDE9022304B07047404280
:1048280061EB4101002B1BDB00F07AF8DDF804E0B6
:10483800DDE9022304B0404261EB4101524263EBDF
:1048480043037047524263EB430300F069F8DDF815
:1048580004E0DDE9022304B0404261EB4101704706
:10486800524263EB430300F05BF8DDF804E0DDE956
:10487800022304B0524263EB4303704753B94AB969
:10488800002908BF00281CBF4FF0FF314FF0FF3050
:1048980000F02AB8ADF1080C6DE904CE00F040F83C
:1048A800DDF804E0DDE9022304B07047D0B500224A
:1048B8000B4B06460F46FFF787FCFFF71FFF044622
:1048C800FFF708FC0022074BFFF77EFC02460B4669
:1048D80030463946FFF7C0FAFFF710FF2146D0BD32
:1048E8000000F03D0000F041704700BF10F8012BB8
:1048F80011F8013B012A28BF9A42F7D0D01A704715
:10490800034611F8012B03F8012B002AF9D170474F
:10491800034613F8012B002AFBD1181A01387047F7
:104928002DE9F04786468C460846089E154674468B
:104938001946002B40F0C1808542B2FA82F245D96F
:104948004AB1C2F1200300FA02FC954094402EFAC5
:1049580003F343EA0C0C4FEA154EA8B2230CBCFB38
:10496800FEF80EFB18CC08FB00F943EA0C43994506
:1049780028D9EB1808F1FF3704D2994502D9A8F1D4
:1049880002072B44A3EB0903A4B2B3FBFEFC0EFB06
:104998001C330CFB00F044EA0344A04214D92C1940
:1049A8000CF1FF3304D2A04202D9ACF102032C442B
:1049B800241A43EA07401EB1D440002334607360D0
:1049C800BDE8F0874746DDE76346F1E792BB431B46
:1049D80001214FEA154EAFB2200CB3FBFEFC0EFBD3
:1049E8001C330CFB07F840EA0343984561D9EB18E0
:1049F8000CF1FF3004D2984502D9ACF102002B44E7
:104A0800A3EB0803A4B2B3FBFEFC0EFB1C330CFBA8
:104A180007F744EA0344A7424DD92C190CF1FF3398
:104A280004D2A74202D9ACF102032C44E41B43EAA6
:104A38000040C0E7C2F120039540944020FA03F1FA
:104A48002EFA03F34FEA154E9040AFB20343B1FB81
:104A5800FEFC0EFB1C10190C0CFB07F841EA004188
:104A6800884522D969180CF1FF3004D2884502D94B
:104A7800ACF102002944A1EB08019BB2B1FBFEFC9A
:104A88000EFB1C110CFB07F743EA01439F420ED9AA
:104A9800EB180CF1FF3104D29F4202D9ACF10201AC
:104AA8002B44DB1B41EA004193E76046E3E761469C
:104AB800F7E76046A4E76346B8E7834206D916B924
:104AC800002108467CE7C6E900E0F9E7B3FA83F776
:104AD8008FB9834201D3724508D8BEEB020460EB5C
:104AE800030301209C461EB9002169E73846FAE70E
:104AF800C6E9004CF8E7C7F1200CBB400EFA07F5F1
:104B080022FA0CF42EFA0CF1BA401C4320FA0CF3EA
:104B1800B8404FEA144901431FFA84FEB3FBF9F881
:104B280009FB18300B0C08FB0EFA43EA00439A45C0
:104B380040D9E31808F1FF3004D29A4502D9A8F108
:104B480002002344A3EB0A0389B2B3FBF9F809FB7B
:104B5800183308FB0EFE41EA03418E452CD9611833
:104B680008F1FF3304D28E4502D9A8F1020321448B
:104B780043EA0040A1EB0E01A0FB02984145CE4656
:104B8800434602D306D14D4504D20138B9EB020E93
:104B980068EB0403002EA7D0B5EB0E0261EB03010E
:104BA80001FA0CFC22FA07F3F9404CEA0303C6E9C0
:104BB800003199E74046C5E74346D9E700000000C1
:104BC8002DE9F04706460F46904688B07DF068F913
:104BD8004FF47A73A0FB034503FB0155E40B012F47
:104BE80044EA45444FEAD53507D122462B4630469C
:104BF80027496CF03BFA002012E0D8F804702548E9
:104C08003946FFF773FE70B139462348FFF76EFE49
:104C180048B130463A4621496CF044FA6FF0040036
:104C280008B0BDE8F087204617A3D3E9002329463A
:104C3800FFF7D4FD05460C4610461946184A0023CE
:104C4800FFF7CCFD80460F46104619464EF6602207
:104C58000023FFF7C3FD82468946104619464FF4E4
:104C68007A720023FFF7BAFDCDE902A9CDE9062340
:104C7800CDE904012A4623463046CDE90087094993
:104C88006CF0F4F9B7E700BF005C260500000000EF
:104C9800BC180900CD180900D0180900D918090056
:104CA80080EE3600F11809002DE9F04FD1F8888020
:104CB800C3B00C4616461490B8F1000F01D1D1F8D4
:104CC8008C80D6F888A0BAF1000F01D1D6F88CA054
:104CD80006F120052946149873F092F820B10027B0
:104CE800384643B0BDE8F08F149BD3F8F4104B6BF3
:104CF80033B128461C3173F054F908B10127EFE7A6
:104D0800149818A904F5C67B73F061F8002840F0E0
:104D18008880BDF9EA30002B00F083809DF9EB50C4
:104D280045B9414658469DF8FC209DF9EA5070F077
:104D380028FE2D1A42F20F733E9F9F4209D16FF44D
:104D48007A6140F26573189842189A4262D86FF0F7
:104D58005B07204671F05DFCD4F888200346EF1B02
:104D68000AB9D4F88C200B218DF85F100DF15F0182
:104D78000291216D1498CDE9007159460FF07EF922
:104D880012904146584694F8542070F0FAFD414676
:104D98003B4694F85420814658460FF04FF8F36F7D
:104DA800514696F85420804606F5C6701393D6F8F7
:104DB80064B070F0E6FD129B139A03F59C53083318
:104DC800934282469AD3306DB0F57A6F2EDD276D07
:104DD800B7F57A6FACBF002701276EF061FA28B1EA
:104DE800206D6EF05DFA80F00100C0B20BEB0A0393
:104DF80015EB090515931BD4139B129A03F59C53C5
:104E080008339A423FF66BAFB8F1190F3FF767AF17
:104E1800022746E06EF044FA002898D16FF0580750
:104E280097E7D4E91F37656E1293AAE70027D4E7FE
:104E3800159B03EB470707EB4007AF4215DA1398BA
:104E4800FFF748F9824612988B46FFF743F94FF06F
:104E580033328F4BFFF7B8F902460B465046594696
:104E6800FFF724FC00287FF43AAF139B129A03F54E
:104E78009C5308339A423FF632AFB8F1190F3FF707
:104E88002EAF15F1550FC0F2988015F1500FBFDB0A
:104E980015F14B0FC0F2938015F1460FB4BF0427EC
:104EA80005271298FFF716F9804613988946FFF7E9
:104EB80011F90022774B82468B46FFF785F90246A7
:104EC8000B4640464946FFF70FFC002879D00A37C1
:104ED800D4F8508040466EF0E3F9002840F0CD80C9
:104EE8006FF47A6240F26573904498458CBF4FF036
:104EF80000084FF00108D6F8509048466EF0D0F9F7
:104F0800002840F0BD806FF47A63994440F26573DD
:104F180099458CBF4FF000094FF00109149BA8EB8D
:104F28000908D3F8903C07EB48072BB1AB4203DBE9
:104F3800159A9342B8BF023F159B574A5B1B9F4285
:104F4800139B4FF003011193159BC8BF00271093C3
:104F5800336DD8BF01270F9396F825300E9396F836
:104F680024300D9396F823300C9396F822300B9347
:104F780096F821300A9396F820300993129BCDE9D0
:104F88000753236D069394F82530059394F824303D
:104F9800049394F82330039394F82230029394F8FE
:104FA80021301498019394F8203000933B4BC8BFEC
:104FB80013463B4A0AF0F2FB92E6012771E7032702
:104FC8006FE74FF03332324B50465946FFF7FCF843
:104FD80002460B4640464946FFF786FB08B10537AF
:104FE80076E729A3D3E9002350465946FFF7ECF8A2
:104FF80002460B4640464946FFF776FB08B10237A2
:1050080066E7DDE91232934201D9013760E70022F1
:10501800204B40464946FFF7D7F802460B46504614
:105028005946FFF761FB08B10A3F51E74FF03332A9
:10503800174B40464946FFF7C7F802460B4650460D
:105048005946FFF751FB08B1053F41E70EA3D3E9E5
:10505800002340464946FFF7B7F802460B4650463C
:105068005946FFF741FB08B1023F31E7DDE912324B
:10507800934238BF07F1FF372AE74FF002083AE7B3
:105088004FF002094AE700BF9A9999999999F13F17
:105098003333F33F0000F83F90EC0A007CEC0A0041
:1050A800A6EC0A000000000001282DE9F04188461E
:1050B80008D084F0CDFC1622274B1A504FF0FF3051
:1050C800BDE8F0818A68254B9A42F2D87CF0E8FE68
:1050D80005460F467CF0E4FE214CD8F80030D8F89D
:1050E8000420A3FB043604FB0266D8F808209B18AA
:1050F80046EBE276EA0B42EA4742A2FB0421FF0BA9
:105108009B1AC0F30E0204FB0711A2FB04244FEA0A
:10511800D23242EA444266EB0101981A61F1000179
:105128000BA3D3E90023FFF759FBEFF311842023E6
:1051380083F31288BFF36F8F0A4BC3E900019A60AB
:1051480084F31188BFF36F8F0020B9E7AFF30080B5
:1051580000CA9A3B000000000C000000FFC99A3BFF
:1051680000CA9A3BD01E00202DE9F04F0129844641
:105178008E4687B064D8002942D033A3D3E90023F0
:1051880033A7D7E9006734A5D5E900450FF2D00B5E
:10519800DBE900AB34A1D1E90001CDE9042334A354
:1051A800D3E90023CDE9002333A3D3E90023CDE9D4
:1051B800022333A3D3E900234FF000084FF000097E
:1051C800CCE90A01DDE90401CCE90C01DDE90001C3
:1051D800CCE90E01DDE90201CCE910010020CCE99F
:1051E8000089CCE90289CCE90467CCE90645CCE919
:1051F80008ABCCE91223CCF8D0E007B0BDE8F08FBB
:1052080021A3D3E9002322A7D7E90067CDE9042326
:1052180021A5D5E9004522A3D3E900230FF2880B85
:10522800DBE900ABCDE9002321A1D1E9000122A3EC
:10523800D3E90023CDE9022321A3D3E90023BBE767
:105248006FF07400D9E700BF310BC0FF67263367E2
:10525800D89E05C15D9DBBCB07D57C362A299A62AD
:1052680017DD70305A01599139590EF7D8EC2F15BE
:1052780011155868874AB48EA78FF9640D2E0CDB78
:10528800A44FFABE1D48B547D182E6AD7F520E51F4
:1052980008C9BCF367E6096A3BA7CA8485AE67BB41
:1052A8001F6C3E2B8C68059B2BF894FE72F36E3CAA
:1052B800F1361D5F3AF54FA56BBD41FBABD9831F96
:1052C80079217E1319CDE05B30B417A3D3E900230D
:1052D80000240025C0E9002315A3D3E90023C0E971
:1052E800604515A5D5E90045C0E9022314A3D3E913
:1052F8000023C0E9044514A5D5E90045C0E9062303
:1053080013A3D3E90023C0E9084513A5D5E900454F
:10531800C0E90A2312A3D3E90023C0E90C4530BC35
:10532800C0E90E23704700BF08C9BCF367E6096AE5
:105338003BA7CA8485AE67BB2BF894FE72F36E3C1C
:10534800F1361D5F3AF54FA5D182E6AD7F520E5179
:105358001F6C3E2B8C68059B6BBD41FBABD9831F33
:1053680079217E1319CDE05B2DE9F04373A5D5E9CA
:105378000045E3B00023CDE90045154660936192EE
:10538800804670A3D3E90023CDE902236FA3D3E9B4
:105398000023CDE904236FA3D3E90023CDE9062335
:1053A8006EA3D3E90023CDE908236EA3D3E9002334
:1053B800CDE90A236DA3D3E90023CDE90C236DA31E
:1053C800D3E90023CDE90E2345B9002541466846B7
:1053D800609565F0B3FD63B0BDE8F0837F2D0E46A0
:1053E8007AD90C46A5F1800727F07F078037DFF8C8
:1053F80048910F446068226800BA12BAE368CDE9A0
:10540800200262691BBA12BA22932492E369A26944
:105418001BBA12BA26932792636A626B1BBA12BA36
:10542800A168206928932C92E36AE26B09BA00BA52
:105438001BBA12BA23912590A16A206A2E922A9348
:10544800226BA36B09BA00BA12BA1BBA2B912D9220
:105458002F932990606C216CE36C00BA09BACDE9EE
:1054680030011BBA616D3293E36D09BA1BBA3491EE
:10547800A16DA26C3693636E09BA206D12BA1BBA7D
:105488003791616F33923893E26EA36E00BA09BA0E
:10549800803412BA1BBA359054F8200C3C9154F859
:1054A800041CCDE93A2354F8102C54F8083C00BAEF
:1054B80009BA39903E9112BA1BBA494668463D92DC
:1054C8003F93FEF77BFCBC4294D125F07F0315F097
:1054D8007F051E443FF479AF002D14BF2C460124EC
:1054E800032D26D9334624F00300304440AA53F84C
:1054F800041B984242F8041BF9D124F00303A207C5
:105508001E443FF463AF31780DEB030282F80011BB
:105518005A1C95427FF65AAF717802336A449D420D
:1055280082F800117FF652AFB2786B4483F80021FD
:105538004CE70023E7E700BFC8AE080008C9BCF382
:1055480067E6096A3BA7CA8485AE67BB2BF894FE59
:1055580072F36E3CF1361D5F3AF54FA5D182E6AD88
:105568007F520E511F6C3E2B8C68059B6BBD41FB17
:10557800ABD9831F79217E1319CDE05B00000000B1
:1055880030B417A3D3E9002300240025C0E9002381
:1055980015A3D3E90023C0E9604515A5D5E9004561
:1055A800C0E9022314A3D3E90023C0E9044514A5E4
:1055B800D5E90045C0E9062313A3D3E90023C0E9D0
:1055C800084513A5D5E90045C0E90A2312A3D3E984
:1055D8000023C0E90C4530BCC0E90E23704700BF6A
:1055E800D89E05C15D9DBBCB07D57C362A299A621A
:1055F80017DD70305A01599139590EF7D8EC2F152B
:10560800310BC0FF6726336711155868874AB48E77
:10561800A78FF9640D2E0CDBA44FFABE1D48B547C1
:105628002DE9F04373A5D5E90045E3B00023CDE9A2
:105638000045154660936192804670A3D3E9002324
:10564800CDE902236FA3D3E90023CDE904236FA397
:10565800D3E90023CDE906236EA3D3E90023CDE9DE
:1056680008236EA3D3E90023CDE90A236DA3D3E968
:105678000023CDE90C236DA3D3E90023CDE90E2344
:1056880045B9002541466846609565F03BFE63B024
:10569800BDE8F0837F2D0E467AD90C46A5F1800728
:1056A80027F07F078037DFF848910F446068226849
:1056B80000BA12BAE368CDE9200262691BBA12BACD
:1056C80022932492E369A2691BBA12BA26932792FD
:1056D800636A626B1BBA12BAA168206928932C927C
:1056E800E36AE26B09BA00BA1BBA12BA2391259091
:1056F800A16A206A2E922A93226BA36B09BA00BA78
:1057080012BA1BBA2B912D922F932990606C216CA1
:10571800E36C00BA09BACDE930011BBA616D329366
:10572800E36D09BA1BBA3491A16DA26C3693636E0E
:1057380009BA206D12BA1BBA3791616F3392389348
:10574800E26EA36E00BA09BA803412BA1BBA359059
:1057580054F8200C3C9154F8041CCDE93A2354F831
:10576800102C54F8083C00BA09BA39903E9112BA84
:105778001BBA494668463D923F93FEF71FFBBC4261
:1057880094D125F07F0315F07F051E443FF479AFCF
:10579800002D14BF2C460124032D26D9334624F0AE
:1057A8000300304440AA53F8041B984242F8041BF3
:1057B800F9D124F00303A2071E443FF463AF317804
:1057C8000DEB030282F800115A1C95427FF65AAF7E
:1057D800717802336A449D4282F800117FF652AF15
:1057E800B2786B4483F800214CE70023E7E700BF59
:1057F800C8AE0800D89E05C15D9DBBCB07D57C36D9
:105808002A299A6217DD70305A01599139590EF7D1
:10581800D8EC2F15310BC0FF672633671115586870
:10582800874AB48EA78FF9640D2E0CDBA44FFABEFD
:105838001D48B54708B50021012045F0FDFE054B80
:1058480005491A68054B0648B2FBF3F269F039FEC0
:10585800002008BD780600206610090040420F00AD
:10586800701009002DE9F0410D4617460A460A490D
:10587800064600246BF0FAFBDFF82080AC4202D128
:105888000020BDE8F081224657F8243041463046D2
:105898006BF0ECFB0134F1E798100900B010090037
:1058A800F0B503290546A9B007D020496BF0FAFBEB
:1058B8006FF01504204629B0F0BDD2E9017636F024
:1058C80001FD044630B9284619496BF0EBFB6FF02F
:1058D8001204EFE79822002102A883F016FB38464D
:1058E8000197FFF715F88DF8080030460396FFF783
:1058F8000FF840F2FF1321468DF81000ADF81A306A
:105908000C489C2301AA76F033FA044640B928468D
:1059180009496BF0ABFB284608496BF0A7FBC9E7C0
:105928000246074928466BF0BDFBC3E7BF100900D4
:10593800E510090002005651FE1009001411090073
:105948001811090030B593B0044636F0BBFC054683
:1059580040B9204616496BF0A5FB6FF012052846A2
:1059680013B030BD48220021684683F0CEFA29469C
:1059780048236A460F4876F0A9FA054690B9009B75
:10598800052B0ADD20460E9B0B4902AA6BF06EFB25
:1059980020460A496BF06AFBE1E7204608496BF0AC
:1059A80065FBF5E70246074920466BF07BFBD6E727
:1059B800E5100900070056513911090014110900B2
:1059C800561109007011090030B5184985B0044610
:1059D8006BF04CFB36F076FC0546E8B1012176F019
:1059E8001EFE0146D8B110236A46012036F046FE55
:1059F8000F49024620466BF039FB0021284669F022
:105A08003AFA20B10821284669F035FA60B9094AFE
:105A1800204609496BF02AFB002005B030BD20461E
:105A280006496BF023FBE8E7054AF1E79A110900FC
:105A38001D13090097110900C8110900B0110900C8
:105A4800931109002DE9F04F01290446ADF2AC7D10
:105A58000DD8A8496BF026FB2046A7496BF006FB3A
:105A68006FF0150528460DF2AC7DBDE8F08FD2F831
:105A780004B05846FEF74CFF10F00309029040F0BE
:105A88008180D8464D464F46DFF870A29C4E029A58
:105A9800A8EB0B039A4202DDB7F5FF7F22DD002554
:105AA8002F260AF807502046944A96496BF0DEFAEA
:105AB80029467C220BA80A950DF1A80B83F025FA3C
:105AC8002946FC222BA8CBF8006083F01EFA072297
